:020000040800F2
:100000000000011031D60608112300086D300208E7
:10001000D1D60608D1D60608D1D6060800000000C1
:10002000000000000000000000000000A5470008DC
:10003000A947000800000000AD47000805C20008FD
:10004000D1D60608D1D60608D1D60608D1D60608DC
:10005000D1D60608D1D60608F1920008F59200081C
:10006000D1D60608F9920008FD920008F52800088C
:10007000092900081D290008312900084529000820
:10008000592900086D290008D1D60608D1D60608DE
:10009000D1D60608D1D60608D1D6060801930008A5
:1000A000A1270008C9270008F12700088D270008AC
:1000B000192800082D28000841280008D1D6060874
:1000C000D1D60608D1D60608D1D60608D1D606085C
:1000D000D1D6060815230008212300082D23000887
:1000E00005930008D1D60608B14700087D2800080E
:1000F000A5280008CD2800086928000881290008E3
:10010000D1D60608D1D6060855280008D1D606084B
:100110003923000845230008D1D60608D1D60608A1
:1001200095290008A9290008BD290008D12900083F
:10013000E5290008D1D60608D1D60608D1D606088A
:10014000D1D60608D1D60608D1D60608054800083B
:10015000F92900080D2A0008212A0008D1D606082E
:10016000D1D60608D1D60608D1D60608D1D60608BB
:10017000D1D60608D1D60608D1D60608D1D60608AB
:08018000D1D60608D1D606080D
:10019000D0E907239A422FBFD01AC0688018C01A2E
:1001A000704700BFD0E9092300699A4238BF12188E
:1001B000D31A0138C01A7047D0E90902101AB0FAF0
:1001C00080F04009704700BF0246036A4069D16869
:1001D000C05C01338B4228BF00231362704700BF0D
:1001E000436A8269D154436A0169426B01338B428D
:1001F00028BF00234362D36843F08003D360704775
:10020000436B188810F0100002D01A889B880120D8
:10021000704700BF436B99891A88890610B5044658
:100220000AD592B2900607D5E26A002A29D09888AA
:10023000216B80B29047636B99891A88090692B244
:100240000FD510060DD5D4E909128A4214D0A16940
:100250002069895C99800132B2FBF0F100FB112228
:10026000A262998A1A88C90592B204D5D20744BFFE
:100270004FF6F7721A8010BDDA6822F08002DA6059
:10028000EFE79B88E2696169DBB28B54E269E16860
:10029000636B0132B2FBF1F001FB1022E261CBE7AC
:1002A000036942681F2B10B40AD95468A3F1200CCB
:1002B000202101FA0CF1214207D15DF8044B70476F
:1002C0001468202199402142F7D081690024C86830
:1002D0000C7480684C68016821F00101016020689D
:1002E00094F805C00C4C818934F81C4089B221EA8D
:1002F00004011F2B818107D9A3F1200120238B400A
:100300005DF8044BD3607047202101FA03F35DF8D8
:10031000044B9360704700BF143E070882B0092267
:10032000274B8DF80720DA68D00319D4DA68D10694
:1003300040D4DA68D20541D4DA6812F0E00F3BD13C
:10034000DB6813F0020F14BF082309238DF8073070
:100350009DF80730012B0AD09DF8070002B07047C6
:1003600001238DF807309DF80730012BF4D1144A92
:1003700012E0D368DB0519D4D36813F0E00F17D16E
:10038000D36813F0020F14BF082309238DF8073038
:100390009DF80730012BDFD1D168C8034FF001036E
:1003A000F4D4D368D906E4D50623EFE70223EDE7BA
:1003B0000723EBE70623D4E70723D2E70223D0E79E
:1003C000003C0240704700BF704700BF01207047EB
:1003D000034BD3E90003C01AC0F30A00704700BF03
:1003E000381F0020054AD2E900138B42FDD0D118F6
:1003F0000133C3F30A03087A53607047381F0020A3
:10040000064BD3F8080800B97047D3F80808A0F1E4
:100410000500B0FA80F04009704700BF381F002087
:10042000012380F849307047044BD3E90003C01A18
:10043000C0F30A00C0F50060704700BF381F0020FD
:1004400010B5D0F8E83504461B699847032384F8B3
:100450001231002010BD00BF08B5042290F812111F
:10046000D0F8E83580F8131180F81221DB6898473E
:10047000002008BD08B5D0F8E435DB6903B1984722
:10048000002008BD08B5D0F8E4351B6A9847002065
:1004900008BD00BF08B5D0F8E4355B6A9847002076
:1004A00008BD00BF037830B403B30446C0F1010CAB
:1004B00004EB0C0314F8015FDBB2002DF8D101331B
:1004C0005B00DCB2138003230C704B7004785CB1CA
:1004D000022300255A1CD2B2CC548D5410F8014F7F
:1004E0000233DBB2002CF5D130BC70470224234626
:1004F000E8E700BF10B5074C2068FF2808D0064980
:10050000D1F80C2801F5016100F080F8FF23236089
:10051000002010BD00000020381F002043230148A8
:100520000B80704704000020122301480B807047A5
:1005300048000020042301480B8070475C00002025
:1005400008B5044B04480A461946FFF7ABFF0846B6
:1005500008BD00BF5027002058EA070808B5044B23
:1005600004480A461946FFF79DFF084608BD00BF2C
:100570005027002064EA070808B5044B04480A46DF
:100580001946FFF78FFF084608BD00BF502700201F
:100590006CEA070808B5044B04480A461946FFF7F9
:1005A00081FF084608BD00BF5027002078EA0708F1
:1005B00008B5044B04480A461946FFF773FF08467E
:1005C00008BD00BF5027002084EA0708704700BF1D
:1005D000704700BF704700BF704700BF704700BF43
:1005E000704700BF044B00200522C3F80828C3F859
:1005F0001809C3F81C097047381F0020024B00205F
:10060000C3F80808704700BF381F0020212838B5FC
:100610000C4605D022282DD0202813D0002038BD2C
:100620000029FBD0072AF9D1194BD3F8200993F8F8
:10063000241993F8252993F82639206021716271D5
:10064000A371EBE70029E9D0072AE7D1104DD5F8CF
:100650001C3913B109680020984720682179627914
:10066000A379C5F8200985F8241985F8252985F886
:100670002639D3E70029D1D0022ACFD1044BD3F8B1
:100680001839002BCAD0098800209847C6E700BF58
:10069000381F002010B4124CD4E900329A1AC2F369
:1006A0000A020A44B2F5006F13D8B1B101444A1EE0
:1006B000013810F801CFE118824203F1010381F8FB
:1006C00008C0C3F30A03F4D1236000205DF8044B93
:1006D000704702205DF8044B70470846F6E700BFFC
:1006E000381F002010B5812104466AF0BBFF204668
:1006F00001216AF0B7FF204682216AF0B3FFFFF7BD
:100700007DFF002010BD00BFC169026910B4002345
:1007100040F20114A0F844410B60D169846D21F0CE
:1007200002014FF0010CD161A0F89CC32360D16994
:10073000044821F4003180F827395DF8044BD16179
:1007400018467047381F0020202301480B8070474F
:1007500060000020122301480B80704780000020B9
:10076000042301480B807047940000200A4608B516
:10077000054920B90548FFF795FE034808BD044820
:10078000FFF790FE004808BD6028002094EA0708A3
:10079000ACEA070808B5044B04480A461946FFF7B7
:1007A00081FE084608BD00BF60280020C4EA070893
:1007B0002048D0F8E837D0F8EC2730B59B184FF038
:1007C0001A040C8001D11C4830BD1B4AD0F8EA172E
:1007D0004FF0000E10467546B3F1204F4FEA137CE0
:1007E0000CF130040EF1020E2ABF0CF1370C8470AC
:1007F00080F802C0BEF1100FC5704FEA031300F17C
:100800000200E9D100200446B1F1204F4FEA1173F4
:1008100003F1300C00F102002ABF373382F812C016
:1008200093740828D4744FEA011102F10202EBD14B
:10083000014830BD00F0FF1F9800002008B5044BB0
:1008400004480A461946FFF72DFE084608BD00BFBA
:1008500060280020D8EA070808B5044B04480A4677
:100860001946FFF71FFE084608BD00BF602800209C
:10087000E4EA0708034BD3F8442CB3F8483C13834D
:1008800000207047381F00204FF40070034B1060A9
:10089000D3F8303D0B600020704700BF381F0020A8
:1008A00000207047012070470120704700207047EA
:1008B00010B51C6994420DD396468A188C46944212
:1008C000996938BFA4EB0E0C71446246BDE8104034
:1008D00070F0E0B810BD00BF704700BF704700BFA8
:1008E000D0ED007AD0ED036A30EE677AE6EE877AD3
:1008F000B0EE670AC0ED007A704700BFD0ED017A14
:10090000F5EE407AF1EE10FA09D1DFED0E7A60EEE5
:10091000A70AB7EE007AC7EE207AC0ED017A31EE71
:10092000277AD0ED007A80ED021AC1EE076A30EE28
:10093000677AC0ED036AE6EE877AB0EE670AC0ED2B
:10094000007A7047DB0FC94090ED017AD0ED036A61
:10095000D0ED027A30EE470AA6EE807A90ED000ADA
:1009600080ED017A37EE676AE6EE867A37EEC07A76
:10097000C0ED027AA6EE870A80ED000A704700BF3C
:10098000D0ED056AD0ED017A90ED007A90ED066A1F
:10099000D0ED025A90ED035A80ED050A66EEA77A73
:1009A000C0ED066AE7EE007A90ED077AE5EE867A0A
:1009B00090ED086AD0ED045A80ED087AE5EE477AAA
:1009C000E5EEC67AB0EE670AC0ED077A704700BF61
:1009D000D0ED057A90ED006A90ED037AD0ED025AE1
:1009E000E6EE007AF0EE406AB0EE670A90ED016A3A
:1009F000D0ED047A27EE407A67EEC07AA6EE267A2A
:100A0000E5EEA67A90ED066AC0ED067A36EE077A34
:100A100080ED057A704700BF03685A1C02601970A8
:100A2000704700BF03685A1C02601970704700BF0E
:100A3000024BD3F8600D03681B681847381F00206D
:100A4000007970470079C0F3401070470079400981
:100A5000704700BF90F83C20034602F0FF0012B13F
:100A6000002283F83C2070472DE9F84346697EB99F
:100A7000D0F80080C8F30D0904460F46B9F1000F05
:100A800026D03F68FFF74AFC092804D06FF0010622
:100A90003046BDE8F8834A4D2B6923F440732B613F
:100AA0002B6943F400732B612B6943F001032B6125
:100AB000C8F80070FFF732FC2B69092823F0010306
:100AC0002B61E3D12368043323603046BDE8F8830B
:100AD0003C4B98452AD303F58043984524D303F52E
:100AE0008043984554D3384B984554D903F5803307
:100AF000984553D903F50033984552D903F500338F
:100B0000984551D903F5003398453ED903F5003394
:100B100098454CD903F5802398454BD9B8F1016F1E
:100B20004BD305200BF042FE4FF00809FFF7F6FB10
:100B3000092804D04FF0FF363046BDE8F883204D39
:100B40002B6923F440732B612B6943F400732B61F1
:100B50002B6923F0F8032B612B6943EA090343F067
:100B600002032B612B6943F480332B61FFF7D6FB23
:100B70002B6923F002032B612B69092823F0F8036A
:100B80002B61D7D1D4F800807BE74FF03809CDE74F
:100B90004FF01009CAE74FF01809C7E74FF02009D6
:100BA000C4E74FF02809C1E74FF03009BEE74FF026
:100BB0004009BBE74FF04809B8E74FF05809B5E7DF
:100BC000003C024000400008FFFF00082DE9F04112
:100BD0000446D0E90030134483421DD88E188E425B
:100BE00017D00D4604F10C08002701E0AE4210D0EA
:100BF00023695A1C2261234415F8010B1873042A37
:100C0000F4D141462046FFF72FFFAE42C4E90470FD
:100C1000EED16069BDE8F0814FF0FF30FAE700BF28
:100C20002DE9F0411E4E96F8643D002BFBD199B39F
:100C3000014400F1FF384F1ED6F8683DD6F86C2D00
:100C40000133C3F30A039A4216D10BF023FB044687
:100C50000D460BF01FFB031B61EB0501B3F57A7F1B
:100C600071F10003F5D3D6F8683DD6F86C2D013349
:100C7000C3F30A039342E8D0D6F8682DD6F8683D4E
:100C800018F8011F32440133C3F30A03B84582F850
:100C9000701DC6F8683DCFD10020BDE8F08100BFCF
:100CA000381F00200A4B10B5D3F8084804B910BD0E
:100CB000D3F80838052BFAD1064C002A0846D4F898
:100CC00078341146F3DDFFF7ABFFD4F8783410BD6C
:100CD000381F00203030002090F84820531C024478
:100CE000DBB280F8483082F8341090F849200AB11D
:100CF000132B03D9002280F8482003B970470A4A11
:100D0000D2F808180029F9D0D2F80828052AF5D118
:100D100010B5064C19463430D4F87834FFF780FF0C
:100D2000D4F8783410BD00BF381F002030300020C8
:100D300090F848100023A0F8483001B97047094BDB
:100D4000D3F80828002AF9D0D3F80838052BF5D1B4
:100D500010B5054C3430D4F87834FFF761FFD4F87F
:100D6000783410BD381F0020303000202DE9F047C6
:100D70005D4E1F4606EB80039C68002C00F0AD80A2
:100D800004F13E03A36104F59F73E3614FF48073A4
:100D9000C4E904332836236866600546E16094F8A8
:100DA0003D00A363904608F033FB814694F844026B
:100DB00094F83CA0261D00284FD194F8450268BB4A
:100DC000D4F8403283BB390734D418F0020F60D115
:100DD00018F0010F44D194F9472294F84712D4F83F
:100DE0004832002A10DB41481B018418DBB284F82A
:100DF00000335209012301F01F0103FA01F140F809
:100E000022103046BDE8F087394A01F00F010A444C
:100E10001B01DBB213763046BDE8F08768F0E8FBD3
:100E2000D4F84032002BCED0324A116B0B43390735
:100E30001363CAD50135EDB2B9F1000FCBD040F242
:100E40000673FA0689F80850A9F8063036D4BB06AE
:100E500094F8462245D4322133E068F0C9FBACE770
:100E6000504608F0D5FA0135EDB20028B3D040F273
:100E700006620572C28094F84622022108F0D2FC74
:100E800094F9472294F84712D4F84832002AAADA93
:100E9000BAE76B1CDBB2B9F1000F99D089F80830C2
:100EA00040F20653A9F8063094F84622484602213B
:100EB00008F0B8FC18F0010F8DD0D1E794F8462265
:100EC0000221484608F0AEFC94F9472294F84712F4
:100ED000D4F84832002A86DA96E726463046BDE83E
:100EE000F0871221EDE700BF143E070800E100E0A3
:100EF000FCEC00E0003802402DE9F047038A8489C9
:100F0000A4B21C4082B045D0814688464FF00045CF
:100F100001F14C0701F13406B4FA84F325FA03F227
:100F2000D24391B2A9F8101014401B3BB8F1000F46
:100F30005DD0042B2CD8DFE803F050463B30030093
:100F4000D8F80C30D9F82CA033B19B6823B11FFA24
:100F50008AF108F104009847D8F8243033B19B682F
:100F600023B11FFA8AF108F11C009847D8F83C30E9
:100F70002BB19B681BB11FFA8AF130469847D8F80D
:100F800054302BB19B681BB11FFA8AF13846984741
:100F9000002CC1D102B0BDE8F087D8F80C30D9F8E8
:100FA00034105B6808F104009847002CB4D1F1E7D5
:100FB000D8F82430D9F838105B6808F11C0098473D
:100FC000002CA9D1E6E7D8F83C30D9F83C105B6892
:100FD00030469847002C9FD1DCE7D8F85430D9F838
:100FE00040105B6838469847002C95D1D2E7042B17
:100FF00007D8DFE803F00319140F0A00D9F84030CE
:101000000193019B002C87D1C4E7D9F82C300193C0
:10101000019BF7E7D9F834300193019BF2E7D9F847
:1010200038300193019BEDE7D9F83C300193019BE7
:10103000E8E700BF70B5254C94F8642D012A0346FB
:1010400003D0022A09D0002070BD214ED6F87C546E
:101050008DB984F8645D002070BD002540F2011256
:10106000C0E95455C0E95655A0F8442100F5A271D5
:101070006AF008FCEDE7402D22D823D0D4F86C1D8F
:10108000144AC3F858510A44C3E954220022C3F851
:101090005C2140F2011203F5A271A3F84421184625
:1010A0006AF0F0FBD4F86C3DD6F87C242B44C3F3F3
:1010B0000A03521BC4F86C3DC6F87C24002070BDA6
:1010C0004025DBE7022284F8642DD7E7381F002093
:1010D00030300020A82C002001EB810138B500EB56
:1010E000C1010E4DB1F88C1304462846FFF7D2FA21
:1010F000E378C4F8A85340210022C4E9EC1201228D
:1011000093422046A4F89C2304F5677108BFC4F8F5
:10111000AC536AF0B7FB002038BD00BFB0340020EC
:1011200070B52B4CD4F8C0340F2B04D05A1CC4F823
:10113000C024002070BD274D95F8643D0022C4F8FE
:10114000C024002BF5D1D5F86C2DD5F8683D9A4216
:10115000EFD0D5F86C2DD5F8683D9A422CD8D5F84B
:10116000686DD5F86C3DF61A402EC4F87C6428D919
:10117000012385F8643D4026D5F86C2D164BC0F848
:1011800058611344C0E954330023C0F85C3140F285
:101190000113A0F8443100F5A2716AF073FBD5F891
:1011A0006C3DD4F87C243344C3F30A03921BC5F886
:1011B0006C3DC4F87C24BCE7D5F86C6DC6F50066C0
:1011C000D2E70CBF0223012385F8643DD4E700BFBA
:1011D00030300020381F0020A82C002038B5224DC8
:1011E000D5F8CC3495F8E4C4044623B195F8D0344E
:1011F0005CEA030331D00123E06984F8463140F210
:101200000112A4F8442102681849002AA8BFC2F3B9
:1012100080739B0301EA124143F020030B4363F305
:101220001F42BCF1020F026000D038BDE278104BC3
:10123000C4F8A8331F200021C4E9EC01012A4FF0B3
:101240000101A4F89C1308BFC4F8AC3304F567711E
:101250002046BDE838406AF015BB012167F0ACFFBD
:1012600095F8E4C4C7E700BF30300020DFBFFFFFC0
:10127000F434002070B590F8CF2590F8D13590F86F
:10128000CE5590F8D0C590F8CC1590F8CD6505EB0B
:1012900002250CEB032C90F8D32590F8D23503EB04
:1012A0000223012284B080F8112101F01F029BB2B9
:1012B000ADB21FFA8CFC012A04468DF80810ADF877
:1012C0000A50ADF80CC0ADF80E30C0F840318DF8C2
:1012D00009600AD0022A57D0002A3CD001F08001D0
:1012E00067F06AFF002004B070BD90F81231032B44
:1012F0002BD15FFA8CFCBCF1010F26D8D0F8E43575
:1013000002A99B689847BDF80E30002BEAD1C4E9CA
:101310004A33C4E94C3304214FF4807284F811112C
:10132000A4F81C2104F58E7120466AF03DFA636D25
:10133000C44A1A61E278012AD4D104F2CC545C6127
:101340004FF0802219681A60CCE7204667F0FCFE57
:10135000002004B070BD092EF7D801A252F826F083
:101360000B1400081B1500084B1300085515000846
:101370004B130008831500082F1400084B130008B6
:1013800099140008C914000801F0600120295FFACF
:101390008CF334D0012E00F06181032E00F0958192
:1013A000002E9FD190F81221022A00F01B81032AFF
:1013B000CBD11CF0800F40F0A48103EB830300EB42
:1013C000C30393F87633002B00F0A6819E4B0122D5
:1013D000C3F8F4249D4A0223C4E94E334FF48070CD
:1013E000002184F81131A4F81C01C4E94C31C4E98E
:1013F0004A2204F58E7120466AF0D6F972E7D0F8D9
:10140000E43502A99B6898476CE790F81231023BDB
:10141000012B9AD88C4BD0F818210021C3F8EC147A
:1014200012B10222C3F8EC24894A0223D4E72E0A1F
:10143000022EADF8063000F0CD81032E00F0918130
:10144000012E82D1D0F8EC3580781B680DF10601B1
:101450009847BDF80630002B3FF444AFBDF80E208E
:10146000002A3FF43FAF934228BF13464FF48072E7
:101470000221A4F81C210022C4E94A0084F81111B9
:10148000C4E94E33C4E94C3204F58E712046ADF800
:1014900006306AF089F925E7012B7FF456AF90F802
:1014A0001221022A00F04981032A7FF44EAF4FF443
:1014B000807100F588720220A4F81C11C4E94E3333
:1014C00084F81101002190E7EDB25F4E012D86F8FE
:1014D000E5543FF63AAF90F81231022B00F021812B
:1014E000032B7FF432AF002D00F07F8190F81011B4
:1014F000012910D0D0F8E4355B68984796F8E514D8
:10150000D4F8E43584F810111B6820469847D4F8C5
:10151000E8359B6898470023F9E690F81231023BC2
:10152000012B3FF612AF012D7FF4DCAED0F8E4358D
:1015300000259B68C0F8185102A9984704224FF46F
:101540008073C4E94A55C4E94C5584F81121A4F8C4
:101550001C31E7E6012D00F0CC80022D7FF4C2AEF5
:101560005FFA8CF3002B7FF4BDAE02694FEA1C23B7
:10157000023B5268032B00F25681DFE803F05B4226
:101580006B5F5CEA03037FF4E0AE90F81221032A5C
:101590003FF4DBAE016905F07F0680F8146108684E
:1015A0001A4665F30A1202430A604FF4807204215E
:1015B000C4E94A33C4E94C3384F81111A4F81C215E
:1015C00004F58E7120466AF0EFF8636D1D4A1A61CA
:1015D000E278012A0DD0002E00F01281022384F857
:1015E00012317FE65A063FF47DAE194667F0E4FDFE
:1015F00078E604F2CC525A614FF0802219681A60E2
:10160000E9E7032363F3061201210F4D84F8161155
:101610000421002384F811114FF48071A4F81C11E7
:10162000C4E94A33C4E94C3304F58E712046C5F849
:10163000F0247AE6022363F30612E5E7052363F359
:101640000612E1E718000860303000202435002041
:101650001C350020042363F30612D5E790F812210D
:10166000022ABFD0032A7FF470AE002D7FF43AAE79
:1016700013F07F023FF44FAF1CF0800F40F0C480A6
:1016800003EB830100EBC10181F8742381F87653E9
:1016900081F87553282101FB030300EB820293F8C4
:1016A0007713506D03688A1E012A6FF35553D4F8DF
:1016B000E4258CBFC3F30071012161F31C739268B0
:1016C000036002A92046904725E790F81221022ADC
:1016D00088D0032A7FF439AE25B9590602D01946BD
:1016E00067F06AFDD4F8E43502A99B682046984764
:1016F00011E7D0F8E43502A99B68C0F81851984763
:1017000009E703F07F0303EB830300EBC30393F8C4
:101710001E31002B7FF45AAE454B0022C3F8F4244F
:1017200058E6002D3FF40AAF01210322D0F8E4353A
:1017300080F8101180F81221E6E63E4984F8112164
:101740004FF480700022C4E94A11A4F81C01C4E9D6
:101750004E33C4E94C3204F58E7120466AF024F809
:10176000C0E5EDB2052D3FF6F0ADDFE805F02B2327
:101770001B130B03D0F8EC3580789B690DF1060143
:10178000984766E6D0F8EC3580785B690DF1060184
:1017900098475EE6D0F8EC3580781B690DF10601BC
:1017A000984756E6D0F8EC358078DB680DF10601F5
:1017B00098474EE6D0F8EC3580789B680DF106012D
:1017C000984746E6D0F8EC3580785B680DF1060165
:1017D00098473EE6D0F8E43580789B6A0DF1060123
:1017E00098474670C4F8F00533E60222D0F8E43595
:1017F00080F8122180F810515B68294698479DE6D1
:10180000012384F812316DE5282303FB020181F8DE
:101810001C2100EB820281F81E5181F81D61906944
:1018200091F81F113EE7012363F30612ECE600BFB7
:10183000303000201835002010B5044629B990F842
:101840001121032A0DD0002010BDD0F8E4359B698A
:10185000002BF8D090F81221032AF4D198470020E9
:1018600010BDD0F890230B46D0F87C138A4213D9D0
:10187000C078521A0128C4F8902336D08A4228BF73
:101880000A4692B2C4E9E22304F55D71A4F8743308
:10189000204669F089FFD6E7D0F8E4351B691BB113
:1018A00090F81221032A1ED000234FF480720421E5
:1018B000C4E94A33C4E94C3384F81111A4F81C215B
:1018C00004F58E71204669F06FFF636D104A1A614E
:1018D000E278012AB7D104F2CC545C614FF0802247
:1018E00019681A60AFE79847DEE78A42D4F88003A8
:1018F000A4F8743328BF0A46084492B2C4E9E2232C
:1019000004F55D71C4F88003C4F88403C0E700BF28
:101910001800086038B5044649B990F81131022B17
:1019200011D094F81631012B40D0002038BDD0F8EA
:10193000E4355B69002BF8D090F81221032AF4D12A
:101940009847002038BDD0F83831D0F82421934290
:1019500036D9C178012908BFD0F82811A3EB0203BA
:1019600018BFD0F82821C0F8383108BF52189BB2F0
:101970004FF480710025C0E94C35A0F81C11C0E976
:101980004A2200F58E7169F00FFFE378C4F88053A6
:10199000012BC4E9E255A4F8745308BFC4F884537A
:1019A00004F55D71204669F0FFFEBAE72A4B226913
:1019B000D3F8F0145160002384F81631002038BDAC
:1019C000D0F83C31B3FBF2F502FB1535ADB99A42C4
:1019D00013D8D0F8402193420FD24FF48073A0F86F
:1019E0001C31C0E94A55C0E94C5500F58E7169F0CB
:1019F000DBFEE378C4F84051C8E7D4F8E435DB688F
:101A00001BB194F81221032A23D0E2780023012A83
:101A10004FF0050108BFC4F88433C4E9E23384F809
:101A20001111C4F88033A4F8743304F55D712046B5
:101A300069F0BAFE636D094A1A61E278012A7FF4FF
:101A400070AF04F2CC525A614FF0802219681A60CC
:101A500067E720469847D8E7303000201800086034
:101A6000F8B50B7813F060060D46044620D0202E02
:101A700025D1CE884EB31B0649D5384F68783246FB
:101A80003946FEF7C3FDEB880222002684F81121B7
:101A90004FF48072C4E94E33C4E94A77C4E94C3646
:101AA000A4F81C2104F58E71204669F07DFE0AE041
:101AB0004B780A2B17D00B2B0ED0062B03D12046C8
:101AC00067F042FB02263046F8BD022248781144F6
:101AD000FEF79CFD3046F8BD8B78002B3AD1204BA9
:101AE000C3F8F864EFE7022280F811214FF4807206
:101AF000A0F81C211B4A0123C0E94E33C0E94A2249
:101B0000C0E94C3600F58E7169F04EFEDBE7164BEE
:101B1000164A4978116003F501620321C0E9E466C1
:101B200080F81111C0F88863C0F88023C078C3F82A
:101B30000C6801284FF00003C4F88C33A4F8743308
:101B400004F55D7108BFC4F88423204669F02CFEBB
:101B50000026B8E767F0F8FAB5E700BF482700208D
:101B60003030002028350020381F002000000020E1
:101B7000002310B519460446402269F0A5FD8021D6
:101B800020460023402269F09FFDD4F8E835A07874
:101B9000012284F812215B689847002010BD00BF25
:101BA00010B5022304464022812169F08DFD2046B4
:101BB00002234022012169F087FD204603230822E9
:101BC000822169F081FD0E4B0222A3F84C20FEF722
:101BD00009FDE2780B4BC4F8A83340200021C4E98A
:101BE000EC01012A4FF00101A4F89C13204604F5F2
:101BF000677108BFC4F8AC3369F044FE002010BD23
:101C000000000020B034002070B5812182B004466D
:101C1000314E69F027FD0121204669F023FD0025A2
:101C2000022340228121204686F8275969F04CFD85
:101C3000012102234022204669F046FD274B86F809
:101C40002759D3F8FC2483F8E454126828469047B7
:101C50000095009BE16843F010030093009B0B612B
:101C60000A691F4B009203E00A690092013B02D00F
:101C7000009AD006F8D400230193019B43F020037F
:101C80000193019A164B012060F38A120192019A86
:101C90000A610A69019203E00A690192013B02D0DC
:101CA000019A9206F8D4E2780E4BC4F8A8330021CA
:101CB0001F20C4E9EC01012A4FF00101A4F89C1394
:101CC00004F5677105D0204669F0DCFD002002B004
:101CD00070BDC4F8AC33F6E7381F00203030002068
:101CE000400D0300F43400202DE9F047089F88469A
:101CF00015460021202204461E4671F06BF84FB1B4
:101D00003B68E3811B0C23827B687A89E3821B0C8E
:101D10006282238340466AF07DFCEB0619D4431EA1
:101D2000B8B108EB000701E0013B12D317F801CD71
:101D3000BCF12E0FF8D1C01A421E032AA8BF0322FD
:101D4000082B03F1010AA8BF08239146C2441A4692
:101D500006E008280246C246A8BF08224FF0000944
:101D60004FF0203341462360636004F108072046AA
:101D70006EF090FE174B23815146BB704A463846A1
:101D80006EF088FE611EE31D11F801CFACF1610E0B
:101D9000BEF1190F9CBFACF1200C81F800C08B4242
:101DA000F2D1384604F10B0110F8013BA3F16102B6
:101DB000192A9CBF203B00F8013C8842F4D118232B
:101DC0002373330CA382E572099B6683E361BDE84C
:101DD000F08700BF202020002DE9F04FDFF8949419
:101DE000D9F8440CB9F8484C448387B0002B00F074
:101DF000DE8001F5FE781344DFF87CB403931646C9
:101E000001F12007C24621E0002E64D0D9F83C3D04
:101E1000B34200F0D180D9F8383DB34200F00481DC
:101E2000D9F8403DD9F8441DB3424BD8B14200F235
:101E30009E81711A204667F0CDF8039B01369E42C1
:101E400007F500770AF5007A00F0AD80D9F8485D13
:101E5000B542A7F12004D7D8751BD9F8588D05F0E5
:101E60000702EB080492D8F830200233934203D3E0
:101E7000D8F8382093420BD941461846059367F0AD
:101E800079F8059B8046002800F09181C9F8580D2B
:101E900098F80420002A40F03981D8F82850002D05
:101EA00000F07E81D8F830209B1A049A02EBC3031D
:101EB000D8F80C20204602EB43224FF40071434631
:101EC000A847BAE7B142B4D920464FF400720021C6
:101ED00070F080FFB1E74FF400723146204670F099
:101EE00079FF802387F89E310C2387F8A231D9F837
:101EF000383DD74AD9F8301DC4F8C6319342C4F8EA
:101F0000CA1100F33981D34AD34C82FB03021A442D
:101F1000D817C0EB621284FB0254D04D85FB03C579
:101F2000C0EB2530C2EB821587F8A1015B1B801046
:101F300020F03F0001330343144487F8A031D31746
:101F4000C3EBE4142244C24B87F89F214A1E9A42F5
:101F500000F31E81BF4BC04883FB02311144D317ED
:101F6000C3EB611180FB0140BC4C84FB0254C3EB0A
:101F70002433C1EB811487F8A531121B9B1023F089
:101F80003F0301321343084487F8A431CB17C3EB56
:101F9000E010014487F8A311552387F8DE31AA2306
:101FA00087F8DF3149E7D9F8440CB9F8484C048385
:101FB000002007B0BDE8F08F4FF0FF3384F8EC311C
:101FC00084F8ED3184F8EE3184F8EF31D9F8503DE2
:101FD000C4F8E8315223237063706123A37084F83E
:101FE000E73141230025E37084F8E631722384F859
:101FF000E43184F8E5314FF4F0722946A7F11C0072
:1020000070F0E8FE5523C7F8D051C7F8D451C7F88F
:10201000D85184F8FE316FF0550384F8FC5184F8F0
:10202000FD5184F8FF3108E700214FF4007220468B
:1020300070F0D0FE8A4A03CA47F81D0CEB2007F85F
:10204000200C582007F81F0C902047F8191C07F89F
:102050001E0C002302220821F820E372227307F8E5
:10206000131CA273E37307F8102C07F80B0CD9F8B4
:10207000380D84F82C20D9F8302D6376121A22629C
:10208000D9F8400DD9F8442DE376121A3F20207676
:102090004FF0FF30A0763E20207701206377A377B2
:1020A000E37784F82D3084F82E3084F82F30626284
:1020B00084F8300084F8313087F82610802187F8C2
:1020C0002010292187F82210942187F823100E214F
:1020D00087F824100D21634A87F82510552187F8C9
:1020E000DE11AA2187F8DF1103CA5F4BC7F827006A
:1020F000C7F82B1003CB1388A7F82F309378C7F8B5
:102100003200C7F8361087F8313096E64FF4007287
:102110000021204670F05EFE049B002B4ED1D8F8C3
:102120004030002B00F0AA80049AD8F830304F4994
:10213000CDE9002220461122FFF7D6FDD8F8403025
:102140001A6C002A00F0AD80049A1B6BCDE90022C6
:10215000474911223846FFF7C7FDD8F8448007F1F8
:1021600020044FF4E075B8F1000F3FD165E6F11A95
:10217000204666F02FFF60E6FF2387F89F3187F83F
:10218000A13187F8A031324B4A1E9A427FF7E2AE66
:10219000FF2387F8A33187F8A53187F8A431FBE640
:1021A000294620464FF4007270F014FE45E6A7F170
:1021B000240343F804BF9A45FBD13EE6D8F84030EB
:1021C000049AD8F84480002B0CBF01230223C3EBF0
:1021D00002154346002B3FF430AE013D9B6CF9D114
:1021E00098464FF40075002B3FF427AE2544203469
:1021F000234620354446049698460EE05CF81C1BA6
:10220000236BCDF800C000260196FFF76DFDA46C8E
:1022100008F12008CCB1454517D02379A44604F134
:102220001C0E1122A8F12000002BE7D1627926694B
:10223000236B216842F02102CDE900E6FFF754FD4F
:10224000A46C08F12008002CE5D1049EF5E500BF40
:10225000FF03FB00832008828180808097554541E1
:10226000F4EA070800EB07080CEB070800FF070873
:10227000FCFF0708381F0020DEADBEEF049BD9F835
:10228000341DCDE9003320460822FFF72DFDD8F894
:102290004480B8F1000F3FF4D0AD3C464FF4F075E8
:1022A000A4E7049BCDE9003352E700BF8C461346F8
:1022B00001466246184646F0DBBD00BF1049114B8F
:1022C000D1F8882042F4700210B4C1F888201A684E
:1022D0000D4C002042F001021A6098601A6822F04A
:1022E000847222F480321A605C601A68074C22F40F
:1022F00080221A60D8608C605DF8044B704700BF84
:1023000000ED00E00038024010300024000000081A
:10231000704700BF0148FDF77DBF00BFB800002037
:102320000148FDF777BF00BF040300200148FDF717
:1023300071BF00BF500500200148FDF76BBF00BF13
:102340009C0700200148FDF765BF00BFE809002099
:10235000704700BF704700BF30B40C4C00222346CA
:1023600004E00132092A03F114030CD093F804C0ED
:102370008445F6D1DD68294201D10029F1D114202C
:1023800000FB024000E0002030BC7047300C002011
:1023900038B5D0E9004307EE902A1B68354A20681B
:1023A0000139934204688DB216D002F580629342DF
:1023B00012D002F5705293420ED002F58062934221
:1023C0000AD002F58062934206D02B4BD3F8E43C4E
:1023D0005B0807EE103A04E0274B03F6E44393ED65
:1023E000007ADFED266AB8EE477AF8EE677A87EE74
:1023F000270A30EE260A6BF037FD1E4A2388013883
:10240000944280B29BB212D002F5806294420ED008
:10241000B4F1804F0BD0A2F58032944207D002F580
:102420008062944203D002F58062944202D123F08C
:1024300070039BB2124A944212D002F58062944219
:102440000ED023F4407302F56C429BB29442238079
:10245000E56220850AD1002323860123A38238BDAB
:102460002380E56220850123A38238BD054B9C4271
:10247000F1D0F8E700000140000000200AD7233C1B
:10248000001000400004014070B54068837903F0FB
:10249000020213F0040300F0C9804FF0000E13464F
:1024A00004247246754690F805C0BCF1030F30D87D
:1024B000DFE80CF08E5F30020368188C20F4805047
:1024C0000004000C1884188C9C8820F40050000430
:1024D0002A43000C40EA0232988B6C4D20F4E6400F
:1024E0000004000CAB42A4B240F4C04000F0B08045
:1024F00005F58065AB4200F0AB809C809883196441
:102500001A849A8B22F400621204120C42F40062C4
:102510009A8370BD2A4305685C4E288C20F4807035
:102520000004000C2884288CB5F804C020F4007046
:102530000004000C40EA0222A88B20F07300000483
:10254000000CB5421FFA8CFC40F0600073D006F519
:102550008066B5426FD0A5F804C0A883E9632A84D9
:10256000AB8B23F008031B041B0C43F00803AB8365
:1025700070BD2A430568454E288C20F010000004E9
:10258000000C2884288CB5F804C020F0200000043A
:10259000000C40EA0212288B20F4E6400004000CF4
:1025A000B5421FFA8CFC40F4C04061D006F580664D
:1025B000B5425DD0A5F804C02883A9632A842B8B7B
:1025C00023F400631B041B0C43F400632B8370BDD6
:1025D00000682E4E2A43058C25F001052D042D0C94
:1025E0000584058CB0F804C025F002052D042D0CDF
:1025F0002A43058B25F073052D042D0CB0421FFADC
:102600008CFC45F0600528D006F58066B04224D0E9
:10261000A0F804C0058341630284038B23F0080300
:102620001B041B0C43F00803038370BD4FF4807E32
:102630001C46012537E722F4006242EA032222F415
:1026400080622CF4405C42EA04224CEA0E1C82E7D1
:1026500024F4804444EA8E144FE74FF6F376164094
:102660002CF4407C46EA03024EEA0C0C2243CFE7EE
:1026700022F0800242EA031222F040022CF4406C65
:1026800042EA04124CEA8E0C94E700BF00000140BD
:1026900042685379032B0FD8DFE803F00B080502DB
:1026A00010684030704710683C3070471068383010
:1026B00070471068343070470020704770B4EFF3F3
:1026C0001182102383F31288C4684668A5682B68BA
:1026D00023F001032B603568114B767933F81660CF
:1026E000AB899BB223EA0603AB81236965681F2B84
:1026F00011D9203B202404FA03F3EB60D3B283F317
:102700001188C3689B6859601A68012422431A60C3
:10271000047470BC7047202404FA03F3AB60EDE747
:10272000143E070803681A7D012A04BF02221A75A5
:1027300093F82C100CBF4FF400720022012904D131
:10274000022183F82C1042F4806293F8441001298E
:1027500005D093F85C1001290AD072B970470221A4
:1027600083F8441093F85C10012942F4006204D10C
:10277000022183F85C1042F480524168096800230A
:102780004B628B899BB21A438A817047024B034884
:10279000D3F80015FEF7B0BB303000200000014038
:1027A00010B5064C0648D4F80015FEF7A5FBD4F882
:1027B00020150448BDE81040FEF79EBB30300020D5
:1027C000000001400040014010B5064C0648D4F816
:1027D0000015FEF791FBD4F824150448BDE810401D
:1027E000FEF78ABB30300020000001400044014069
:1027F00010B5064C0648D4F80015FEF77DFBD4F85A
:1028000028150448BDE81040FEF776BB30300020A4
:102810000000014000480140034B4FF08040D3F8D6
:102820000415FEF769BB00BF30300020024B03489F
:10283000D3F80815FEF760BB3030002000040040DC
:10284000024B0348D3F80C15FEF756BB303000207E
:1028500000080040024B0348D3F81015FEF74CBBAC
:1028600030300020000C0040024B0348D3F81C1508
:10287000FEF742BB303000200004014010B5064C8A
:102880000648D4F81C15FEF737FBD4F82C1504487D
:10289000BDE81040FEF730BB30300020000401409E
:1028A0000018004010B5064C0648D4F81C15FEF779
:1028B00023FBD4F830150448BDE81040FEF71CBBDC
:1028C0003030002000040140001C004010B5064CD0
:1028D0000648D4F81C15FEF70FFBD4F8341504484D
:1028E000BDE81040FEF708BB303000200004014076
:1028F000002000400348D0F8F43C13B100F6E84053
:1029000018477047000000200348D0F8143D13B169
:1029100000F6085018477047000000200348D0F820
:10292000343D13B100F628501847704700000020CE
:102930000348D0F8543D13B100F64850184770478B
:10294000000000200348D0F8743D13B100F6685031
:1029500018477047000000200348D0F8943D13B199
:1029600000F6885018477047000000200348D0F850
:10297000B43D13B100F6A85018477047000000207E
:102980000348D0F8D43D13B100F6C850184770473B
:10299000000000200348D0F8F43D13B100F6E850E1
:1029A00018477047000000200348D0F8143E13B1C8
:1029B00000F6086018477047000000200348D0F870
:1029C000343E13B100F6286018477047000000201D
:1029D0000348D0F8543E13B100F6486018477047DA
:1029E000000000200348D0F8743E13B100F6686080
:1029F00018477047000000200348D0F8943E13B1F8
:102A000000F6886018477047000000200348D0F89F
:102A1000B43E13B100F6A8601847704700000020CC
:102A20000348D0F8D43E13B100F6C8601847704789
:102A30000000002002683649002310B422F0010291
:102A4000212488420260036043608360C3600361A5
:102A5000446138D02F4B98422ED02F4B98423CD017
:102A60002E4B984240D02E4B984232D02D4B98425C
:102A700041D02D4B984246D02C4B984217D02C4B2E
:102A800098423CD02B4B984216D02B4B984224D0E6
:102A90002A4B984228D02A4B98421AD0294B984268
:102AA00029D0294B98422ED0284B984208D14FF07C
:102AB0003D5243F8AC2C03E04FF4746243F8202CF1
:102AC0005DF8044B7047224B5DF8044B3D229A6041
:102AD0007047204A43F8642CF2E74FF474125DF813
:102AE000044B43F8382C70474FF074625DF8044B88
:102AF00043F8502C7047184A43F87C2CE0E73D22FD
:102B000043F8082CDCE7154A43F8942CD8E700BFBB
:102B1000106002402860024040600240586002405D
:102B20007060024088600240A0600240B8600240CD
:102B3000106402402864024040640240586402402D
:102B40007064024088640240A0640240B86402409D
:102B5000006002403D000020400F002000003D20AA
:102B600000222DE9F04713460D684FF0010E0326B1
:102B700004E00133102B02F1020239D00EFA03FCFB
:102B80003CEA0504F5D1076806FA02F427EA0407CF
:102B900007600F79D0F800A007FA02F9013F49EA6F
:102BA0000A09012FA046C0F800906FEA040411D86A
:102BB00087683C4084604C79876894403C438460DB
:102BC000446824EA0C0444608C7947689C40A4B2B1
:102BD0003C434460C46824EA0804C460CC79C768F4
:102BE000944001333C43102BC46002F10202C5D172
:102BF000BDE8F0872DE9F0412348244F244E254CB1
:102C000082B03822002170F0E5F8002557F8251031
:102C10003246002301E054F8332091422ED0013394
:102C20000E2BF8D10020053566F0E2FC2D2DEDD1FC
:102C3000DFF85880184F08F1B4054FF0007698F887
:102C4000040006F0E5FB08F11408044688B10368A7
:102C500003F13F4303F57E0307EB932393F8C8008A
:102C600066F0C6FCA3880196206800936946FFF7CA
:102C700077FFA845E3D102B0BDE8F081064A02EB38
:102C8000C30393F85C00CEE730350020300C002001
:102C9000000001406C3E0708143E0708224A936872
:102CA00003F00C03042B10B421D0082B22D01F4BAF
:102CB00003601D4C1E4AA168C1F30311114491F831
:102CC000E81ECB404360A168C1F38221114491F812
:102CD000E81E23FA01F18160A1685DF8044BC1F39D
:102CE00042310A4492F8E82ED340C3607047114B3A
:102CF0000360DEE75368516813F4800F01F03F0171
:102D0000536814BF0B4A094AB2FBF1F1064A5268F4
:102D1000C2F30142C3F38813013201FB03F35200F3
:102D2000B3FBF2F30360C4E7003802400024F40070
:102D30000000002000127A0070B5446B8668A389F9
:102D400023F400531B041B0CA381827905464079B0
:102D500012F0040F14BF4FF4805C4FF0000C11030D
:102D600010F0010F4FEA02220CBF0023042302F4EB
:102D70008062800748BF43F0080342EA0C02134315
:102D8000228A92B201F4005122F440520A43228274
:102D9000A28922F4B05222F00C021204120C1A433F
:102DA000A281A38A23F440731B041B0C84B0A3826A
:102DB0006846FFF773FF244B9C4205D003F5806300
:102DC0009C4201D0029A00E0039AA3891F491B0488
:102DD00002EB82024CBF7300B30002EB8202B2FB33
:102DE000F3F3A1FB0302A08952096426000406FB49
:102DF00012334FEA02121FD41B013233A1FB03131B
:102E0000C3F3431313439BB22381AB796A6B13F073
:102E1000080F938A0AD09BB243F0080393829389E8
:102E20009BB243F40053938104B070BD23F00803B8
:102E30001B041B0C9382F2E7DB003233A1FB03136C
:102E4000C3F342131343DEE7001001401F85EB512B
:102E50002DE9F8431D46344B9DF820609DF82490E1
:102E600098428846174646D0304B98424BD0304B5C
:102E7000984250D02F4B984235D02F4B98422ED1AC
:102E80004B46324629460420FDF770FF04460023D6
:102E9000C4E90B87C4E90733C4E909336671A56047
:102EA00084F806902046FFF747FFF107626B0ED4C7
:102EB000B30707D493899BB243F400539381204610
:102EC000BDE8F883D36843F08003D360F2E74FF6A0
:102ED000DF731380D36843F02003D360E8E7002456
:102EE0002046BDE8F8834B46324629460320FDF7CD
:102EF0003DFF0446CBE74B46324629460020FDF70E
:102F000035FF0446C3E74B46324629460120FDF70C
:102F10002DFF0446BBE74B46324629460220FDF70B
:102F200025FF0446B3E700BF001001400044004005
:102F300000480040004C0040005000408160FBE62B
:102F40004171F9E62DE9F043DFF8148208EBC0097E
:102F500085B00546C70099F8FC0E06F059FA0446FC
:102F600099F8FD0E06F054FA064699F8FE0E66F042
:102F70003FFB6B1CDBB2002C00F0AD8040F60C1266
:102F80002372E280002E00F0C380337240F60C23DF
:102F90002046F38004223A2106F044FC0422304605
:102FA0003A2106F03FFC08EB0703624AD3F8F84EDB
:102FB000944200F09880604B9C4200F09E805F4BF2
:102FC0009C4200F0AB80474497F8FF2E022A5CD069
:102FD000032A7ED05A4B5B4E012A18BF1E46A78893
:102FE0006846FFF75BFE27F03F07029B564AB3FB9C
:102FF000F6F63F04A2FB03233F0C47EA9347A78062
:10300000228822F001021204120C2280B2B2C6F30E
:103010000B069B0C002E59D04FF4967101FB03F365
:103020004A49A1FB03139B0901339BB242F40042BE
:103030002384A2832388464A9BB243F00103238062
:10304000238823F4816323F002031B041B0C4FF439
:10305000804143F4806323802181238823F080030F
:103060001B041B0C238023889BB202EB451243F008
:10307000010323800121002382F8385582F8391595
:1030800082F83A3505B0BDE8F083A6886846FFF7B8
:1030900005FE26F03F06029A2B4B3604A3FB0213D3
:1030A000360C46EA9346A680218821F001010904E6
:1030B000090C21809B0C2749013392092384A1FB31
:1030C00002329209042A38BF0422B2E742F0010218
:1030D000A2E7214E83E7002E3FF465AF337240F63E
:1030E0000C23F3805AE71D4B1A6A42F400121A624D
:1030F0001A6A22F400121A6265E703F5F0331A6ABD
:1031000042F480021A621A6A22F480021A625AE7B2
:10311000042220463A2106F085FB44E703F5EE330E
:103120001A6A42F400021A621A6A22F400021A624F
:1031300049E700BF0054004000580040005C0040D8
:10314000804F1200009F240083DE1B43D34D62108A
:1031500030300020632D3E05C027090000380240B2
:10316000000000202DE9F047954D90F900108046B1
:10317000807805EBC1060138CC0094B0D6F8F81E73
:1031800014282ED8DFE810F053012601150057004F
:103190006100A200AA00F001E2017D0087006A023E
:1031A00032020502C500D50030003800CF01C10150
:1031B0005B01888A0C8B81B2824841EA044130EA83
:1031C000010100F02681D8E90210521A42F2107172
:1031D00063EB00038A4273F1000302D3152388F8DE
:1031E000023014B0BDE8F08798F813000882C8E9EF
:1031F0000223122088F80200888A0C8B80B240EAF1
:103200000440714C34EA000000F0B68000201190B8
:1032100012900120129111901199002900F043821F
:10322000129914311291129909684905CBD51423CA
:1032300088F80230D5E798F8110000F0FE00088207
:10324000C8E90223052088F80200888A0C8B80B226
:1032500040EA04405D4C34EA000000F0A480002005
:10326000039004900120049103900399002900F039
:103270002682049914310491049909684F05D6D423
:10328000A1E798F8110040F001000882C8E9022384
:103290000B2088F80200888A0C8B80B240EA044038
:1032A0004B4C34EA00006FD00020079008900120BA
:1032B000089107900799002900F0FB8108991431C3
:1032C0000891089909684D05B1D47CE798F8130076
:1032D0000882C8E90223072088F80200888A0C8B3C
:1032E00080B240EA0440384C34EA00005FD000204D
:1032F000059006900120069105900599002900F09F
:10330000F181069914310691069909684E058ED40B
:1033100059E7088820F480600004000C088098F8C1
:10332000110000F0FE000882C8E90223102088F88E
:103330000200888A0C8B80B240EA0440234C34EAB5
:10334000000012D000200F901090012010910F90DB
:103350000F99002900F0B98110991431109110993A
:10336000096848053FF563AF2DE798F81330FF2B48
:1033700006D198F810301BB1132388F8023030E7DB
:10338000112388F802302CE7D8F81400012800F047
:10339000BA81022800F07B820E20098B88F8020097
:1033A000C8E902231DE7062388F8023019E7D8F898
:1033B0001400002800F09C81082388F8023010E7F0
:1033C00000000020010003008400070082000700C5
:1033D00002000300088820F400600004000C08804C
:1033E000088880B240F480600880088880B240F489
:1033F00080700880032088F80200888A0C8B81B2D4
:10340000B54841EA0441C8E9022330EA01037FF4E8
:10341000E8AE98F81230002B40F0198298F813307B
:10342000FF2B00F04C82042388F80230D9E609888B
:1034300089053FF5C8AE002388F80230D1E62C4458
:1034400094F8FC0E05F0E4FF064694F8FD0E05F036
:10345000DFFFA24AB2F8983501339BB28246A2F848
:103460009835002E00F008823368B2881A8310B1B4
:103470000268818811839A4C03F13F4303F57E0370
:1034800004EB932393F8C80066F0B2F8B388129364
:103490004FF001131393306812A9FFF761FBBAF1E3
:1034A000000F17D0DAF80030019103F13F4303F524
:1034B0007E0304EB932393F8C80066F099F8BAF8FA
:1034C000043012934FF0011313930199DAF80000BE
:1034D000FFF746FB4FF0090965272EB13368B28824
:1034E00019690A4240F02A81013F00F0248108F066
:1034F000D1FE04460D4608F0CDFE001B61EB050130
:10350000052871F10003F6D3E7E7088880B240F49C
:10351000007008804FF6FF3088820121C8E902233D
:1035200088F802105DE6D8F81400002800F07C81CD
:10353000D8F8184014F8016B0E8201381225C8E93A
:103540000504C8E9022388F802504AE6888A0C8BF1
:1035500081B2614841EA044130EA01017FF433AEAF
:103560000A2388F802303CE6088880B240F4807074
:103570000880092088F80200888A0C8B81B256489E
:1035800041EA0441C8E9022330EA01037FF429AE8D
:10359000E6E7002401250D940E940E910D950D98EB
:1035A000002800F035810E9814300E900E980068B7
:1035B00046077FF508AED8F81400032800F085818F
:1035C000022800F24881088820F480600004000C82
:1035D0000880088880B240F400700880098A88F862
:1035E0001C40C8E9022388F80250FAE500200124B3
:1035F0000B900C900C910B940B98002800F02181FB
:103600000C9814300C900C98006847077FF5DBADE0
:10361000EFF31185102080F31288088880B240F4FF
:1036200000700880D8F818000E8A471CC8F8187077
:10363000EDB2067085F311880D8AD8F818106FF076
:1036400001004E1CC8F818600D70C8E90223C8F8C4
:10365000140088F81C4088F80240C2E50020099058
:103660000A9001200A910990099C002C00F0D68054
:103670000A9C14340A940A9C246864067FF5A3AD5E
:103680000C8AD8F818104D1CC8F818500C70D8F8CF
:10369000141088F81C000139C8E90223C8F8141076
:1036A00088F802009DE51299183112911299096863
:1036B00089E50899183108910899096883E5049902
:1036C00018310491049909687DE510991831109119
:1036D0001099096877E500BF010003003030002031
:1036E000143E0708069918310691069909686AE59B
:1036F000088880B240F4007008800121C8E90223E4
:1037000088F802106DE5088820F480600004000C41
:103710000880EFF31184102080F31288088B08884A
:1037200080B240F40070E4B2088084F311880C2168
:1037300088F8021034E616B13368B2885A8308F06C
:10374000A9FD04460D4608F0A5FD031B61EB05012C
:10375000052B71F10003F6D316B13368B2881A83D2
:1037600008F098FD04460D4608F094FD031B61EB3C
:103770000501052B71F10003F6D3B9F101097FF4BE
:10378000ABAE16B13368B2885A8308F083FD0446A5
:103790000D4608F07FFD031B61EB0501052B71F160
:1037A0000003F6D3BAF1000F04D0DAF80030BAF80B
:1037B00004205A8308F06EFD04460D4608F06AFDA9
:1037C000031B61EB0501052B71F10003F6D316B164
:1037D0003368B2881A8308F05DFD04460D4608F090
:1037E00059FD031B61EB0502052B72F10003F6D3B3
:1037F000BAF1000F04D0DAF80030BAF804201A83C6
:1038000098F90000441C3FF416AEFFF79BFB12E64C
:103810000E9918310E910E990968D4E40A9918315D
:103820000A910A990968CEE4088880B240F40070D1
:1038300008800121C8E9022388F81C1088F80210CA
:10384000CFE40C9918310C910C990968BBE40F2353
:1038500088F80230C5E4D8F81800098A441CC8F872
:1038600018400170D8F81410C8F808200139C8F8B9
:103870001410C8F80C30B4E400283FF42BAEDAF88A
:103880000030BAF80420274C1A8312A90CE60888E5
:1038900080B240F400600880EFF31184102080F3C0
:1038A0001288088B088820F480600004000CE4B2C1
:1038B000088084F311880D2188F8021070E598F8CB
:1038C0001030002B3FF4AFAD4AE6088820F480604A
:1038D0000004000C0880EFF31184102080F312889C
:1038E000D8F818000D8A461CC8F8186005700888BA
:1038F00080B240F40070E4B2088084F31188D8F8F4
:103900001800098A441CC8F818400170D8F814102F
:103910000C200239C8E90223C8F8141088F8020004
:103920005FE400BF143E070838B5184D9DF814E059
:1039300005EB40144FEA401C94F8390500B938BD36
:1039400084F84B25C4F84C3501220023490005F5C5
:10395000A76584F84A2584F85435049A84F848E524
:10396000022384F84915C4F8502584F83A35654493
:1039700008F090FC02460B462846FFF7F3FB94F84C
:103980003A35002BF4D194F8540538BD303000207E
:1039900010B504682379012B84B011D0022B0CD10F
:1039A000A368DB074FF0F0024CBFFF217F212046C8
:1039B00004B0BDE8104004F067BC002004B010BDA6
:1039C000A268617C94F9100002F0010201920DF1ED
:1039D0000F020092F024FF228DF80F40FFF7A4FFA2
:1039E00004B010BD70B505682B79012B84B0044676
:1039F0000E4616D0022B11D1AB68E122DB074CBF7B
:103A000011466121284604F03FFC38B12068324657
:103A1000FF2104B0BDE8704005F0F2B8002004B00A
:103A200070BDAA68697C95F9100002F001020DF1E1
:103A30000F0501920095E1228DF80F20FFF774FF2A
:103A4000E3E700BF70B505682B79012B84B004460D
:103A50000E4617D0022B12D1AB68DB074FF0C30222
:103A60004CBFE1216121284604F00EFC38B12068EA
:103A70003246FF2104B0BDE8704005F0C1B8002017
:103A800004B070BDAA6895F91000697C02F00102CB
:103A900001920DF10F020092C3228DF80F20E12256
:103AA000FFF742FFE2E700BF10B504682379CA437D
:103AB00041EA0211012B84B0CAB20FD0022B0AD105
:103AC000A368DB074CBFD2215221204604B0BDE8D9
:103AD000104004F0D9BB002004B010BD8DF80F20B9
:103AE000A268617C94F9100002F001020DF10F044C
:103AF000CDE90042D222FFF717FF04B010BD00BF8E
:103B000070B505682B79012B84B004460E461AD097
:103B1000022B15D1AB68DB074FF0F0024CBFE1215F
:103B20006121284604F0B0FB50B12246FF2152F833
:103B3000040B05F065F818B12379337004B070BD3B
:103B4000002004B070BDAA6895F91000697C02F0ED
:103B5000010201920DF10F020092F0228DF80F2068
:103B6000E122FFF7E1FEDFE710B504682379012BBE
:103B700084B011D0022B0CD1A368DB074FF0B40244
:103B80004CBFFF217F21204604B0BDE8104004F067
:103B90007BBB002004B010BDA268617C94F91000CA
:103BA00002F0010201920DF10F020092B424FF22F3
:103BB0008DF80F40FFF7B8FE04B010BD10B50468D3
:103BC0002379012B84B010D0022B0BD1A368DB0723
:103BD0000A4620464CBFA521252104B0BDE810406F
:103BE00004F052BB002004B010BDA26894F910008C
:103BF0008DF80F1002F00102617C0DF10F04CDE988
:103C00000042A522FFF790FE04B010BD10B5046875
:103C10002379012B84B011D0022B0CD1A368DB07D0
:103C20004FF096024CBFFF217F21204604B0BDE833
:103C3000104004F029BB002004B010BDA268617CD4
:103C400094F9100002F0010201920DF10F020092AE
:103C50009624FF228DF80F40FFF766FE04B010BDDA
:103C600010B504682379012B84B010D0022B0BD13E
:103C7000A368DB070A4620464CBF8721072104B012
:103C8000BDE8104004F000BB002004B010BDA268E5
:103C900094F910008DF80F1002F00102617C0DF113
:103CA0000F04CDE900428722FFF73EFE04B010BDAD
:103CB00010B504682379C901012B84B0CAB20BD0B6
:103CC000022B06D17821204604B0BDE8104004F054
:103CD000DBBA002004B010BD8DF80F20A268617C13
:103CE00094F9100002F001020DF10F04CDE9004239
:103CF0007822FFF719FE04B010BD00BF10B50468AC
:103D00002379012B84B011D0022B0CD1A368DB07DF
:103D10004FF055024CBFA5212521204604B0BDE837
:103D2000104004F0B1BA002004B010BDA268617C5C
:103D300094F9100002F0010201920DF10F020092BD
:103D40005524A5228DF80F40FFF7EEFD04B010BDFD
:103D500038B5184D9DF814E005EB40144FEA401CAF
:103D600094F8390500B938BD490084F84B25C4F8EA
:103D70004C3584F849150023049984F848E502225B
:103D800005F5A76584F84A35C4F8501584F854350C
:103D900084F83A25654408F07DFA02460B46284629
:103DA000FFF7E0F994F83A35002BF4D194F8540574
:103DB00038BD00BF30300020F0B5044683B00D465A
:103DC0001746061D20680379012B18D0022B13D14A
:103DD0008368DB0732464FF0FF015CBF3246FF21AC
:103DE00004F0BAFE30B115B12379DB07EAD40FB184
:103DF00023793B7003B0F0BD002003B0F0BD8268B2
:103E0000417C90F9100002F00102CDE90062FF222E
:103E1000FFF79EFFE6E700BF30B5044683B0051DFF
:103E200020680379012B14D0022B0FD18368DB07A4
:103E30002A464FF0FF015CBF2A46FF2104F08CFEAA
:103E400010B12379DB07EBD403B030BD002003B001
:103E500030BD8268417C90F9100002F00102CDE98A
:103E60000052FF22FFF774FFEAE700BF30B50246B9
:103E7000044652F8040B0379012B83B00ED0022BB9
:103E800009D1FF2104F068FE18B12079C04300F089
:103E9000010003B030BD002003B030BD8568417C17
:103EA00090F91000009205F001050195FF22FFF73F
:103EB0004FFFE9E730B5B42283B00446FF21006824
:103EC00004F034FA10B9002003B030BD2068037943
:103ED000012B04F1040514D0022BF4D18368DB0715
:103EE0002A464FF0FF015CBF2A46FF2104F034FE52
:103EF0000028E8D02379DB07E6D520680379012B79
:103F0000EAD18268417C90F9100002F00102CDE90B
:103F10000052FF22FFF71CFFEAE700BF30B50A4658
:103F200083B00446A521006804F000FA10B900200F
:103F300003B030BD20680379012B04F1040514D0CF
:103F4000022BF4D18368DB072A464FF0FF015CBFE8
:103F50002A46FF2104F000FE0028E8D02379DB0781
:103F6000E6D520680379012BEAD18268417C90F97B
:103F7000100002F00102CDE90052FF22FFF7E8FE37
:103F8000EAE700BF70B582B0CDE900230446FFF731
:103F900091FF10B9002002B070BD20685522A52104
:103FA00004F0C4F90028F5D0251D20682A46FF2119
:103FB00004F026FE0028EDD02379DB07F5D40DF1BF
:103FC000FF350DF1070615F8011F2046FFF7A6FF84
:103FD0000028DFD0B542F6D1DDE700BF002A37D098
:103FE000F0B5013A83B004464E1E51FA82F7051D22
:103FF00016F8012F2068A52104F098F990B9002047
:1040000003B0F0BD8268417C90F9100002F001021B
:10401000CDE90052FF22FFF79BFE0028EFD0237965
:10402000DB0710D520680379012BEBD0022BE6D1FA
:104030008368DB072A464FF0FF015CBF2A46FF2159
:1040400004F08AFDE9E7B742D2D1012003B0F0BD08
:104050000120704770B5962282B004460E46006873
:10406000FF2104F063F910B9002002B070BD251DD6
:1040700020680379012B1FD0022BF5D18368DB0761
:104080002A464FF0FF015CBF2A46FF2104F064FD81
:104090000028E9D02379DB07EAD4E1222068114621
:1040A00004F044F90028DFD020683246FF2102B036
:1040B000BDE8704004F0A4BD8268417C90F9100016
:1040C00002F00102CDE90052FF22FFF741FEDFE7D7
:1040D000002A46D0F0B5013A4F1C83B004460E4684
:1040E00057FA82F7051D20689622FF2104F01EF979
:1040F00090B9002003B0F0BD8268417C90F91000B7
:1041000002F00102CDE90052FF22FFF721FE002854
:10411000EFD02379DB0710D520680379012BEBD092
:10412000022BE6D18368DB072A464FF0FF015CBF14
:104130002A46FF2104F010FDE9E7E122206811463C
:1041400004F0F4F80028D4D020683246FF2104F0AF
:1041500057FD0028CDD00136BE42C4D1012003B0A6
:10416000F0BD0120704700BF70B505460B46044600
:10417000164655F8040B82B087211A4604F0D6F88B
:1041800020680379012B18D0022B13D18368DB0739
:104190002A464FF0FF015CBF2A46FF2104F0DCFCF9
:1041A00030B12379DA07EBD416B1C3F3401333707F
:1041B00002B070BD002002B070BD8268417C90F9F1
:1041C000100002F00102CDE90052FF22FFF7C0FD0E
:1041D000E6E700BF70B5782182B004461646006855
:1041E000002204F0A3F810B9002002B070BD251D14
:1041F00020680379012B14D0022BF5D18368DB07EB
:104200002A464FF0FF015CBF2A46FF2104F0A4FCC0
:104210000028E9D02379DA07EAD45B09337002B0C9
:1042200070BD8268417C90F9100002F00102CDE976
:104230000052FF22FFF78CFDEAE700BF30B5CC2229
:1042400083B00446A521006804F070F810B900207E
:1042500003B030BD20680379012B04F1040514D0AC
:10426000022BF4D18368DB072A464FF0FF015CBFC5
:104270002A46FF2104F070FC0028E8D02379DB07F0
:10428000E6D520680379012BEAD18268417C90F958
:10429000100002F00102CDE90052FF22FFF758FDA5
:1042A000EAE700BF30B5B42283B00446FF210068BE
:1042B00004F03CF810B9002003B030BD251D206883
:1042C0000379012B22D0022BF5D18368DB072A4624
:1042D0004FF0FF015CBF2A46FF2104F03DFC00289F
:1042E000E9D02379DA07EAD4CC212046FFF716FE7D
:1042F0000028E0D002E02379DB07DDD520682A46DC
:10430000FF2104F07DFC0028F5D1D4E78268417CD0
:1043100090F9100002F00102CDE90052FF22FFF7F0
:1043200017FDDCE72DE9F04F89B00446CDE90623FF
:10433000002004F1040B0490029103905D46204696
:10434000049FFFF7B7FD069BFE0003EBC70B20B9E8
:104350000AE0237913F0010A0CD020682A46FF21D5
:1043600004F04EFC0028F4D1079B049A1A7009B09F
:10437000BDE8F08F9B07F7D5F0212046FFF7CEFD73
:104380000028F1D0069B083E334401270593D04610
:104390003E46029B002B4AD0082E48D806F1FF3932
:1043A00043FA09F909F0010920684FEAC912782196
:1043B00003F0BCFF0028D7D020680379012B47D039
:1043C000022B43D18368DB072A464FF0FF015CBF15
:1043D0002A46FF2104F0C0FB0028C5D0237913F042
:1043E0000102E9D103F0600160294FEAD31C51D0EA
:1043F000029919B1082E01D8E145B5D1BCF1000FE1
:104400003AD01BF808303B430BF808307F000136E8
:1044100017F0FF07F6B2BCD108F101085FFA88F87F
:10442000B8F1080F36D0029B0127002BB4D1049BB2
:10443000D3B1039BB34217D9059B13F808301F4231
:1044400014BF4FF001094FF00009ADE700208BE7E2
:104450008268417C90F9100002F00102CDE900521F
:10446000FF22FFF775FCB7E7039BA3EB0609B9FA38
:1044700089F94FEA591997E71BF8081021EA070153
:104480000BF80810990941EA531313F0010F08BF04
:10449000B246BBE7402E06D8079B049A1B7893428E
:1044A0003FF64DAF60E79BF807C00BF1FF370BF10C
:1044B000060B17F8011F082382EA010616F0010F08
:1044C0004FEA520218BF82F08C0203F1FF3318BF8B
:1044D000D2B213F0FF034FEA5101EDD1BB45E8D151
:1044E0009445D9D1049B0133DBB20493BAF1000F98
:1044F0003FF43AAFCDF80CA0CEE700BFF0B587B0DF
:104500000023824A00930193136843F480331360BD
:1045100003E0009BB3F5A04F09D0136803F4003308
:104520000193009B01330093019B002BF1D0774B4B
:104530001B6813F4003318BF01230193019B012B67
:1045400001D000BFFDE7714B71491A6C714842F010
:1045500080521A640A6842F440420A609A689A607B
:104560009A6842F400429A609A6842F4A0529A60B3
:1045700058601A6842F080721A601A689201FCD57D
:10458000654A40F205711160996821F00301996054
:10459000996841F00201A2F580629960936803F086
:1045A0000C03082BFAD1936803F00C03042B00F0E2
:1045B0008C80082B00F08E80584D594BC5F8E43C98
:1045C000524BD5F8E41C9A68564C5748C2F3031274
:1045D0002A44002692F8102FD140544AC5F8E41C12
:1045E000E260534A596FA260596B524A21F0800130
:1045F0005963596F41F080715967196B0A431A6307
:104600005A6B5A639A6B9A631A6C4B490A431A6441
:10461000596C4A4A0A435A6402A948F2FF7302934A
:104620004FF6FF770396FEF79BFA00F5806002973E
:10463000FEF796FA00F580600297FEF791FA00F512
:104640008060FEF78DFA00F58060FEF789FA00F5CC
:104650008060FEF785FA00F58060FEF781FA00F5CC
:104660008060FEF77DFA00F58060FEF779FA084673
:10467000FEF714FBD4F8FC30029A3149314843F07C
:104680008073C4F8FC30304BC3F8B01F5E6019680B
:1046900041F001011960D5F8E43C4FF47A71B3FBA5
:1046A000F1F3013BB3F1807F2849B2FBF1F2C0F88E
:1046B0009C2508D24FF0E022F0215361072384F8B3
:1046C00023109661136107B0F0BD144D204BC5F85F
:1046D000E43C75E753685168104D13F4800F01F006
:1046E0003F01536814BF1A4A0D4AB2FBF1F1074A61
:1046F0005268C2F30142C3F38813013201FB03F392
:104700005200B3FBF2F3C5F8E43C59E7003802402D
:104710000070004008544007003C024000000020A8
:104720000024F40000ED00E0000002400003FA0560
:1047300000000008FF916700FFC9FE103357070013
:1047400055CEACC530300020001000E040420F00D4
:1047500000127A0082B0064B002201920193019B65
:1047600003EB80000190019B196002B0704700BF0D
:104770005028004010B51C2004F04AFE68B10446E1
:10478000112103F0FFFC2368A2885A83C82007F098
:10479000AFFD2368A2881A8310BDBDE81040C82071
:1047A00007F0A6BD704700BF704700BF704700BF4D
:1047B00010B5124C94F8AA3523B9114B4FF480224E
:1047C0005A6110BD4FF0E022D2F8103D23F00603ED
:1047D000C2F8103DFDF772FD94F8AA35002BECD01D
:1047E000D4F8B0359B68DB07E7D5D4F8AC2613685E
:1047F00023F0030161F307031360DEE7303000208C
:10480000003C01402DE9F04FB34CD4F8AC355A6967
:10481000D2078BB002D50BB0BDE8F08F5A699B6907
:1048200012EA0309F7D0C9F3074319F4002F0093E4
:1048300040F0E180009B590743D419F0020F5FFA62
:1048400089F603D0D4F8AC3502225A61B9F1000FD1
:10485000C0F2EE8119F4006FC9F3072540F04A81D8
:10486000330708D59D4B9E48D3F82C3F9847D4F882
:10487000AC3508225A61F70600F1C481EE0600F15A
:104880006F81A90600F1E880009BDA0609D5934BF9
:104890009348D3F83C3F9847D4F8AC354FF4801296
:1048A0005A61009B9B06B6D58C4B8D48D3F8403F90
:1048B0009847D4F8AC354FF400125A610BB0BDE8FC
:1048C000F08FD4F8B0259369D26913401FFA83FAA8
:1048D000BAF1000FB1D0DFF81882CDF80C90A8F132
:1048E000180500271AF0010F78D0FEB2D4F8B025D1
:1048F00004EB86031069D3F8B815536B8968F3404D
:10490000DB01DBB203430B4013F00109D9B240F0E5
:10491000AB810A0740F1C881D8F8002008239360D2
:10492000994619F0800F59D0D5E94CC0D5F82431FB
:10493000D8F800E0ACEB00018B42DEF8182028BF6D
:104940000B4692B20333B2EB930F47D9D4F8B0259C
:1049500094F8A395323604EB8603CDE901786746D7
:1049600098469446874237D9D5F82431391A994266
:1049700028BF194601F1030BD5F828314FEA9B0BEC
:10498000B9F1000F10D18AB203329210D8F8A8659D
:104990000AD04846013053F8047B37608242F9D18F
:1049A000D5E94C70D5F8283108440B44B842C5F815
:1049B0002831C5F83401DEF818300AD195F81C11F9
:1049C000012202FA01F1DCF8342022EA0102CCF8DB
:1049D00034209BB29B45C5D3DDE901785FEA5A0AD2
:1049E00007F1010708F1040805F128057FF47AAF03
:1049F000DDF80C9021E7D4F8B0359D69DB691D40E6
:104A00002D0C3FF417AF04F5B468DFF8D0B004F212
:104A1000F4560027C24608E06D0807F1010706F1C9
:104A2000040608F128083FF405AFEB07F4D5F9B206
:104A300004EB8103D4F8B025D3F8F4359B685269B0
:104A40001340D807DAB200F13F81930740F1678144
:104A5000336802229A60DFE7D4F8B035D4F8B8158D
:104A60009A680868C2F34102022A06BF032262F371
:104A70000A006FF30A0008605A6842F480725A60B4
:104A800006A8FEF70BF9D4F8AC25D4F8B015D36816
:104A9000079D6FF38D23D36088681249C0F34100EE
:104AA000014491F8D010032900F05F810E490F48AE
:104AB0000126294484F8A26581424FF04006A4F8FB
:104AC000A46500F2AC810E2161F38D234FF40051F7
:104AD000D3605161D8E600BF3030002000000020D4
:104AE000D0350020143E0708401E1BFF3F420F0038
:104AF000E835002000238DF8133094F8B2368DF895
:104B00001330B64BB648D3F8343F9847D4F8B03595
:104B1000D4F8AC25986894F8AA354FF40061516137
:104B2000002B3FF49DAEC2077FF59AAE94F8B536E0
:104B3000012B7FF495AE9DF81330032B7FF490AEDC
:104B4000D4F8AC36A7491A6842F001021A601A6814
:104B500042F003021A600B6943F006030B617FE623
:104B6000D4F8B065D4F8AC157368002723F00103BE
:104B700073600597059B43F020030593059B67F33E
:104B80008A130593059B0B610B690593BC46964BF5
:104B900003E00A690592013B02D0059A9006F8D419
:104BA00094F8A12552B1914B03EB820EFF2253F8EA
:104BB000040F8260D86B73458260F8D10B2363F3D6
:104BC000070763F3070C4FF0FF33B3614FF0011396
:104BD000F3617761C6F810C0336885486FF30A1334
:104BE000336094F8A325D4F8F435012A186100F055
:104BF000B5804FF480534B61784B7948D3F8303F00
:104C000098473EE6D4F8AC359A6922F010029A61D2
:104C10001A6AC2F34340022802F00F0100F0B0808C
:104C2000062800F087809A6942F010029A6125E612
:104C300094F8AA353BB1D4F8AC26136823F00301ED
:104C400061F307031360D4F8B025644B6448D3F8CC
:104C5000381F536823F0010353608847D4F8AC35FC
:104C60004FF000425A61F5E5516BD8F800005B4BFC
:104C70004FF0010C0CFA07FC21EA0C0151630122F0
:104C8000D3F8243F826031465548984794F8A335BD
:104C9000012B00F0B18019F0020F3FF442AED8F8BA
:104CA000003002229A6099E6CB0604D5D8F800308D
:104CB00010229A6092E6480658BF8946EBD5D8F88C
:104CC000003040229A6089E694F8A32533680120D9
:104CD0008242986007D11A69D8F87C33C2F3120275
:104CE0009B1AC8F88C33DBF8203F5046984794F85D
:104CF000A335012B7FF490AE002F7FF48DAE94F896
:104D0000B136052B7FF488AED4F8F435384A1A61F1
:104D1000384A5A611A684FF080221A607CE6100700
:104D20007FF57AAEDBF8283F504698473368082273
:104D30009A6071E601EB810104EBC101D4F8706661
:104D4000D1F82C09C2F30A1202443068C4F86C0B83
:104D50003068C4F8700BC1F82C2964E7254A5A6101
:104D60001A684FF080221A6043E7002184F8A215E8
:104D70004FF40071A4F8A415092161F38D23A5E671
:104D800047F6F07010423FF44EAFC2F30A1201EB47
:104D9000810004EBC00002F1030C5FEAAC0CD0F818
:104DA0002069D4F870E64FEA810818BF002006D0C9
:104DB0000130DEF8007046F8047B8445F8D14144A8
:104DC00004EBC101D1F820091044C1F82009D1F841
:104DD0002C090244C1F82C2925E700BF000000205F
:104DE000D035002000ED00E0400D0300E435002048
:104DF000180008609C3B0020002F7FF44CAF94F813
:104E0000B136042B7FF447AFD4F8F4352B4A1A613E
:104E10002B4A5A611A684FF080221A603BE72948F2
:104E2000A5F57401A1F51051814203D80D2161F35C
:104E30008D234BE6244925482944814203D20C2185
:104E400061F38D2342E62248A5F18C71A1F543411F
:104E5000814203D80B2161F38D2337E61D491E489B
:104E60002944814203D20A2161F38D232EE61B4996
:104E70001B482944814203D2092161F38D2325E691
:104E80001848A5F1B771A1F55851814203D2082104
:104E900061F38D231AE6144914482944814203D250
:104EA000072161F38D2311E61149124829448142FB
:104EB00034BF0621052161F38D2307E61800086041
:104EC0009C3B0020DFC810002013FBFE20D61300FF
:104ED000FF69180000D3CEFE40771B00C05BB3FE15
:104EE000C091210040AC2700C01D6AFE40E13300A4
:104EF000803C36FEE09C410070B51A4D1A4BC5F857
:104F0000943B1A4B85F8A01B002683F8276905F609
:104F10009433C0E954330D230446C0F8583140F2AD
:104F20000113C0F85C6100F5A271A0F8443166F08D
:104F3000A9FCE378C4F8B4631F22C4F8B0230122AB
:104F400005F2C4459342C4F8A853A4F89C2308BFB3
:104F5000C4F8AC5304F567712046BDE8704066F0B4
:104F600091BC00BF3030002055534253381F002001
:104F7000F0B50B7813F0600683B00C46054633D0CD
:104F8000202E2DD14A78FE2A6BD0FF2A63D14A8881
:104F9000002A40F08B80CA88002A40F087801906DA
:104FA00000F184806148624B80F82729C5F8B4235A
:104FB000EA78012183F8E414A5F89C1303F2C443B2
:104FC0001F21012AC5F8B013C5F8A83305F567718C
:104FD00008BFC5F8AC33284666F054FC002600E054
:104FE0000026304603B0F0BD4B780A2B6AD00B2B5D
:104FF00063D0012BF5D18B88D9B21B0676D40196EC
:10500000019BC06843F010030193019B0361036996
:105010000193484B03E002690192013B02D0019ADF
:10502000D206F8D42846424F66F01CFB02232179B1
:105030004022284666F048FB97F8E434022B6DD0F6
:1050400094F90420002ACCDA012BCAD00121284689
:10505000FFF752FFC5E764F077F80226304603B049
:10506000F0BD4E8816BBCC88012C1FD118061DD56B
:105070002F4FD7F8FC349B699847C0B287F8A40B30
:10508000A0B1022307F6A43785F811314FF48073DD
:10509000C5E94E44C5E94A77C5E94C46A5F81C3137
:1050A00005F58E71284666F07FFB9AE7284664F086
:1050B0004BF80226304603B0F0BD1D4B4A8883F8FA
:1050C000A52B8EE7022280F811214FF48072A0F800
:1050D0001C21194A0123C0E94E33C0E94A22C0E924
:1050E0004C3600F58E7166F05FFB7AE70096009B08
:1050F000C06843F020030093009B61F38A13009380
:10510000009B0361036900930A4B03E0026900926C
:10511000013B87D0009A9706F8D483E7812128467F
:1051200064F04AF8002387F8E4345AE7381F002077
:1051300030300020400D0300D53B002010B50D4B52
:1051400093F82739022B07D0033B012B02D800210B
:10515000FFF7D2FE002010BD074B93F8D114044690
:1051600066F042FC0028F5DA01212046FFF7C4FE74
:10517000F0E700BF381F002030300020F8B5404E67
:1051800096F82759074655B1012D06D13D4B93F8A6
:10519000D11466F029FC002832DB0020F8BD394C20
:1051A000B0F8B433D4F8C824C4F8982B1F2BD4F823
:1051B000CC24C4F89C2B08D1334BD4F8C4249A4295
:1051C00003D194F8D11401291FD994F8A63B04EB1C
:1051D000C3020133DBB2042B4FF0050108BF0023EB
:1051E00082F8A81B4FF4005184F8A63B38460223EE
:1051F000C2F8AC1B84F8E434FBF7F0FF0020F8BDE4
:1052000029463846FFF778FEC7E794F8D234013BC9
:105210000F2BDAD866F0E8FB002827DB96F8273951
:10522000013B022BB9D9B4F8C83B1BB3042286F862
:105230002729164AC7F85C51C7E95422D4F8CC2470
:1052400084F8A05B934228BF1346D4F89C2BC7F880
:10525000583140F20111A7F84411D31A07F5A27191
:105260003846C4F89C3B66F00DFB96E73846FBF7E2
:10527000B5FF92E719463846FFF73EFE8DE700BFBF
:10528000381F002030300020555342431C6D002051
:1052900010B54FEA511E024400EB8E0C624529D92D
:1052A00001F01F014FF0FF3404FA01F350F82E1003
:1052B0000B4093FAA3F3B3FA83F3DBB2202B16D19E
:1052C0000CF104018A4202D817E08A4212D98C46B6
:1052D0000431DCF8003093FAA3F3B3FA83F3DBB2C2
:1052E000202BF2D0ACEB000003EBC00010BD03EBB1
:1052F0004E1010BD4FF0FF3010BD204610BD00BF56
:1053000030B503694268494D83B00BB9002A65D0B6
:10531000D0ED067AC46A013377EE807A0361631CAC
:10532000012BC0ED067AC36247D0D0ED075A90ED4D
:10533000097AD5F8781407EE903A30EE656AF8EEFF
:10534000E76A8A1AC6EE267A81688A4277EEA57ADB
:1053500030EE670AC0ED087AA6EE007AC0ED077A53
:1053600080ED0A7A80ED097A01D803B030BD012BB7
:105370004EDD07EE904AF8EEE77A87EE270AB5EEA3
:10538000C00AF1EE10FA46DBB5EE400AF1EE10FA73
:1053900044D4F1EEC07AF4EE677AF1EE10FA3AD620
:1053A00090ED057AB4EEE77AF1EE10FA1AD5037BA8
:1053B00033B30323037003B030BDD5F8783481686C
:1053C000DFED1B7A80ED080A9A1A8A4280ED070AFF
:1053D000C0ED097AC9D9B0EE670ADAE7D5F87824C2
:1053E000426095E7D0ED047AD0ED066AF8EE677A70
:1053F000022386EEA77A037080ED067A03B030BDF3
:10540000D5F878144160002203618261C362ACE781
:105410009FED070ABDE7DFED067AC1E7019068F06E
:10542000ABFE0198F0EE407AB5E700BF30300020C7
:105430000000000070B52DED028B044682B000F133
:10544000480503460026B1EC017AD3ED067ADA6A04
:1054500077EE877A0132012AC3ED067ADA626ED0DE
:1054600093ED075A93ED096A07EE902A77EE455AB5
:10547000F8EEE77AC5EEA76A76EE857AF0EE466A30
:1054800037EE677AC3ED087AE5EE876AC3ED077AEF
:10549000C3ED0A6AC3ED096A1833AB42D3D103697D
:1054A0003A4E426801330361D6F878349B1A826819
:1054B000934240D99FED368AE36A012B4DDD013BD3
:1054C00007EE903A94ED0A7AF8EEE77A87EE270A2B
:1054D000B5EEC00AF1EE10FA4EDBB5EE400AF1EE81
:1054E00010FA4CD4F1EEC07AF4EE677AF1EE10FACD
:1054F00042D690ED057AB4EEE77AF1EE10FA24D4B4
:105500001834AC42D8D1D0ED047AD0ED066A90EDD3
:105510000C7AD0ED125AF8EE677A022386EEA76A6B
:105520000370C7EE276A85EEA77A80ED066AC0EDA4
:105530000C6A80ED127A02B0BDEC028B70BD83ED77
:10554000087A83ED077A5E62A6E7037B43B1032303
:10555000037002B0BDEC028B70BDB0EE480AC1E72B
:105560000022D6F87814416003618261C36202634D
:1055700043648264C365DEE7F0EE487AB9E70190E0
:1055800068F0FAFD0198F0EE407AADE73030002087
:1055900000000000F0EEC07AB0EEE07AB4EEE77AF8
:1055A000F1EE10FAD4BFB0EE676AB0EE476AB5EE1E
:1055B000406AF1EE10FA48D0B4EEE77AF1EE10FA54
:1055C00054BFF0EE675AF0EE475AC5EE866ADFED3B
:1055D000202ADFED203ADFED204A9FED205A9FED93
:1055E000203A9FED204A9FED206AE6EEA23AA6EE11
:1055F000834AE6EEA34AF7EE005AA6EEA45AE6EE78
:10560000845AA6EE856AB1EE466AC6EE256AB4EE05
:10561000E77AF1EE10FA48BFDFED147AF5EEC00A32
:1056200048BF77EEE66AF1EE10FA48BFDFED107A78
:10563000B5EEC00A48BF77EEE66AF1EE10FA48BF51
:10564000F1EE666AB0EE660A7047DFED0A6ADEE7E1
:1056500039094E3DE3B59EBE88FA16BE45FE7FBFB2
:1056600099FB243F69A2163EA7DFA8B4DB0FC93F10
:10567000DB0F4940A7DFA83491ED007AD0ED047A22
:10568000D0ED055A90ED064AD0ED074A90ED085A44
:1056900090ED096AD0ED0A6AE7EE077AF7EE003A74
:1056A000C0ED047A91ED007AD1ED017AE7EE275A48
:1056B00090ED0B7AC0ED055AD1ED025A91ED003A0A
:1056C000D0ED0C7AA3EE254A80ED064AD1ED005AC2
:1056D00074EEA54AC0ED074AD1ED014AD1ED005A5A
:1056E000A4EEA55A80ED085A91ED015AA5EE056A7F
:1056F00080ED096AD1ED015A91ED026AE5EE866A04
:10570000C0ED0A6AD1ED016A37EE267A80ED0B7A98
:10571000D1ED026A91ED007AE6EE877AC0ED0C7A5F
:1057200091ED026AD1ED016AD0ED0D7A90ED0E7A1D
:1057300090ED0F4AD0ED104A90ED115AD0ED135A6A
:10574000E6EE267A75EEA35AC0ED0D7AD1ED026A27
:10575000D0ED127A90ED006AA6EEA67AD0ED016A3D
:1057600080ED0E7A91ED027A34EE074A90ED027ADE
:1057700080ED0F4A91ED004A74EE844AC0ED104A64
:10578000D1ED014A35EE245A80ED115A91ED025ABD
:10579000C0ED135A77EE857AC0ED127AD1ED017A19
:1057A000D1ED005A91ED025A67EEA77AE5EEA57A9F
:1057B000E5EE057AA5EEA76A80ED006A91ED016A33
:1057C000E6EE276AC0ED016AD1ED026AA6EEA77A7D
:1057D00080ED027A90ED037A77EE277AC0ED037AB6
:1057E000704700BF2DE9F04F89B0CDE9011200F1FB
:1057F0001009834600F13008CE4607464E4605465E
:1058000084460024CDF80C906246284684B1D2ED3F
:10581000007A01463B468946F3EC016A99ED007A2D
:10582000E6EEC77A634501F11001C2ED007AF2D1CC
:105830000432724500F10400E8D1032C04F1010A9E
:1058400030D062463046ABEB05099CB1D2ED047A0C
:10585000009409EB000329460C46F3EC016A94ED31
:10586000007AE6EEC77A834201F11001C2ED047AB4
:10587000F2D1009CD2ED046A16ED047AC6EE877A66
:105880001032424500F11000C2ED007ADDD10CF17A
:10589000140C08F10408043514360EF1100E1037FC
:1058A0005446B1E7DDE902290025002301350593BF
:1058B00006930793042D52F8043B049305A80BF1BB
:1058C000140418D0F2EC017A04A9C0ED007A4B461A
:1058D000B1EC017AF3EC016AE6EEC77AA342C0EDBF
:1058E000007AF5D10135042D09F1100900F1040009
:1058F00004F11404E6D1019A08AE76ED017A02258E
:1059000010320BF14004022D2046A2F1040142EDB9
:10591000017A20D02346F3EC016AB2EC017AE6EE7C
:10592000C77A9842C1ED007AF5D154ED016A87EE4D
:10593000A67A6B1C81ED007A14D076ED017A013DD8
:105940000A46022DA4F11404A0F11000A2F10401F2
:1059500042ED017ADED154ED016A87EEA67A02EDBE
:10596000017AEAE709B0BDE8F08F00BF10B584B056
:105970000C46024669461030FFF734FFDDED007A31
:105980009DED017ADDED026AB6EE006A67EE867A79
:1059900027EE067A66EE866AF4EE677AF1EE10FA82
:1059A000C4ED007A84ED017AC4ED026A0DD6B4EE3E
:1059B000477AF1EE10FA13D6F4EE666AF1EE10FAB9
:1059C00078BF012016D604B010BD9FED106AF0EE2E
:1059D000E77AF4EE467AF1EE10FAE8DD0020F2E71D
:1059E000DFED0A7AB0EEC77AB4EE677AF1EE10FA1C
:1059F000E2DDF3E7DFED057AF0EEE66AF4EE676AE2
:105A0000F1EE10FAD4BF01200020DCE7FFFF7F7F1A
:105A1000DFED257AB4EEE70AF1EE10FA08DD9FED2E
:105A2000237A30EE470AB4EEE70AF1EE10FAF8DC1A
:105A3000DFED1F7AB4EEE70AF1EE10FA08D59FED1C
:105A40001B7A30EE070AB4EEE70AF1EE10FAF8D44A
:105A5000DFED187AB4EEE70AF1EE10FA18DD30EE59
:105A6000670A37EEC00A60EE007A9FED137A9FED69
:105A7000136ADFED136AA7EE876A9FED127AE7EEED
:105A8000866A60EE275AA7EEA67AA5EE870A7047C7
:105A90009FED0D7AB4EEC70AF1EE10FA44BF30EE76
:105AA000270A37EE400ADEE7DB0F4940DB0FC9402B
:105AB000DB0F49C0DB0FC93F9A7C2E36FAAF4FB9D6
:105AC0003587083CA4AA2ABEDB0FC9BF10B53E4CDF
:105AD000B4FBF2F4A1420DD300234FF07E520260DA
