:020000040800F2
:1000000000000110692B000871200008092C00086D
:10001000092C0008092C0008092C00080000000029
:10002000000000000000000000000000F9220008AD
:10003000FD22000800000000012300080D2B00082D
:10004000092C0008092C0008092C0008092C0008BC
:10005000092C0008092C0008092C0008092C0008AC
:10006000092C0008092C0008092C0008B9210008F7
:10007000CD210008E1210008F5210008092200082F
:100080001D22000831220008092C0008092C000854
:10009000092C0008092C0008092C0008092C00086C
:1000A000BD200008DD200008FD200008B120000868
:1000B0001D2100082921000835210008092C00080D
:1000C000092C0008092C0008092C0008092C00083C
:1000D000092C000875200008812000088D200008E8
:1000E000092C0008092C00080523000859210008E4
:1000F00079210008992100084D21000845220008B7
:10010000092C0008092C000841210008092C0008CE
:1001100099200008A5200008092C0008092C0008D7
:10012000592200086D22000881220008952200084B
:10013000A9220008092C0008092C0008092C000835
:10014000092C0008092C0008092C00085923000874
:10015000BD220008D1220008E5220008092C000871
:10016000092C0008092C0008092C0008092C00089B
:10017000092C0008092C0008092C0008092C00088B
:08018000092C0008092C0008FD
:10018800436B99891A88890610B504460AD592B234
:10019800900607D5E26A002A29D09888216B80B298
:1001A8009047636B99891A88090692B20FD5100691
:1001B8000DD5D4E909128A4214D0A1692069895C55
:1001C80099800132B2FBF0F100FB1122A262998AF8
:1001D8001A88C90592B204D5D20744BF4FF6F77200
:1001E8001A8010BDDA6822F08002DA60EFE79B8897
:1001F800E2696169DBB28B54E269E168636B0132E1
:10020800B2FBF1F001FB1022E261CBE782B00922D8
:10021800274B8DF80720DA68D00319D4DA68D1069D
:1002280040D4DA68D20541D4DA6812F0E00F3BD145
:10023800DB6813F0020F14BF082309238DF8073079
:100248009DF80730012B0AD09DF8070002B07047CF
:1002580001238DF807309DF80730012BF4D1144A9B
:1002680012E0D368DB0519D4D36813F0E00F17D177
:10027800D36813F0020F14BF082309238DF8073041
:100288009DF80730012BDFD1D168C8034FF0010377
:10029800F4D4D368D906E4D50623EFE70223EDE7C3
:1002A8000723EBE70623D4E70723D2E70223D0E7A7
:1002B800003C024070B505460C46FFF7A7FF092829
:1002C80000D070BD0A4E336923F44073336133693B
:1002D80043F400733361336943F0010333612C60E5
:1002E800FFF794FF336923F00103336170BD00BF4A
:1002F800003C024000222DE9F04713460D684FF0FC
:10030800010E032604E00133102B02F1020239D05A
:100318000EFA03FC3CEA0504F5D1076806FA02F474
:1003280027EA040707600F79D0F800A007FA02F956
:10033800013F49EA0A09012FA046C0F800906FEA78
:10034800040411D887683C4084604C7987689440DD
:100358003C438460446824EA0C0444608C79476810
:100368009C40A4B23C434460C46824EA0804C460C6
:10037800CC79C768944001333C43102BC46002F128
:100388000202C5D1BDE8F0871F4A936803F00C0349
:10039800042B10B41BD0082B1CD01C4B03601A4A2A
:1003A8001B499468C4F303140C5DE34043609468EC
:1003B800C4F382240C5D23FA04F4846092685DF827
:1003C800044BC2F342328A5CD340C3607047114B7E
:1003D8000360E4E75368516813F4800F01F03F01AC
:1003E800536814BF0B4A094AB2FBF1F1064A526836
:1003F800C2F30142C3F38813013201FB03F3520035
:10040800B3FBF2F30360CAE7003802400024F400AB
:100418000000002000127A0010B5D0F8E835044634
:100428001B699847032384F81231002010BD00BFD0
:1004380008B5042290F81211D0F8E83580F81311A5
:1004480080F81221DB689847002008BD08B5D0F86D
:10045800E435DB6903B19847002008BD08B5D0F83A
:10046800E4351B6A9847002008BD00BF08B5D0F8DE
:10047800E4355B6A9847002008BD00BF064B53F877
:1004880020303BB11A689B8851690B4201D05383D5
:1004980070471383704700BF64300008074B53F858
:1004A800203021B14BB11A689B8853837047002BC9
:1004B800FCD01A689B881383704770476430000823
:1004C800224B5B68C3F3080330B4DBB9EFF3118345
:1004D800C3B91F4B4FF0E02C5968DCF818005A6874
:1004E8008A42F9D1D9688142F6D39C684FF47A7C64
:1004F8000CFB04F30021181AB0FBF4F030BCE2FB4B
:100508000C017047EFF31181102383F312884FF029
:10051800E022C9B29569136913F4803F0C4B1EBFE2
:1005280001201860956958681A6881F311889C68D9
:100538004FF47A7C131800210CFB04F0401BB0FB2D
:10054800F4F030BCE3FB0C01704700BF00ED00E0A5
:10055800600E00200048704710000020014B1B6906
:100568009B691847600E0020034803690BB11B6A9A
:1005780018471430704700BF600E002070B50C4C4F
:100588000023A4469CF800E086450CF1060C08D030
:100598000133092BF6D1074DEB6D082B07D05E1CF4
:1005A800EE65062505FB0343187059809A8070BDD7
:1005B800840E0020600E0020F8B50F4B1C6907461A
:1005C8000D461646ACB1236A984703465968B5FBF1
:1005D800F1F401FB1455A4B20DB10134A4B2328870
:1005E800141BA4B2611C384689B2FFF7C7FF3480D8
:1005F800F8BD1433EAE700BF600E002070B5134E53
:1006080096F822504FF0000E24364FF000619DB14D
:1006180036F804CC0B464FEA8C2C002283420EF1AC
:10062800010402F101026144634401D881420AD8FD
:10063800AA425FFA84FEF1D1B5780436002DE7D1DD
:100648004FF0FF3070BD4FFA8EF070BD00000020F3
:100658000B0614D401EB810300EBC30300224FF017
:10066800010C00EB810083F876C383F8741383F8D8
:100678007523426D136843F400131360704701F04B
:100688007F0101EB810200EBC202012300EB810034
:1006980082F81E3182F81C1182F81D3180690268C7
:1006A800002A01DBC2F3807305499B0301EA12416A
:1006B80043F020030B4363F31F420260704700BFFF
:1006C800DFBFFFFF10B40123846980F81E314FF4A7
:1006D8008072A0F81C2122681449002AA8BFC2F31E
:1006E80080739B0301EA124143F020030B4363F339
:1006F8001F42416D226001234FF0000CA0F874C323
:1007080080F876330B680A4A43F400130B600A61D9
:10071800C378012B06D100F2CC5048614FF08023FA
:100728000A680B605DF8044B704700BFDFBFFFFF2E
:10073800180008604309012200F01F00023B02FA7A
:1007480000F0032B07D8DFE803F0020C11070A4B6F
:100758005A6C104358647047074B5A6B10435863E0
:100768007047054B1A6C104318647047024B1A6B9C
:1007780010431863704700BF0038024070B44B78CC
:10078800012B28D00B784D6900EB83035C6D226840
:10079800236923F4002323F07F03ADB18D684D61F5
:1007A80005F07F0545F400252B432361C378012B11
:1007B80004BF0B696361C2F3076363F07B0363F3F0
:1007C8001F62226070BC70478D6805F07F0545F494
:1007D80000252B43E9E784694D692268236915B32D
:1007E8008E68B5428CBF66F3060365F3060343F4CF
:1007F800002388BF4E612361C378012B1DD0C2F34B
:10080800076565F07B0565F31F622260002BD9D16F
:100818004B69002BD6D002690878516B01238340BD
:100828000B435363CEE723F4002323F07F0343F401
:1008380000232361C378012BE1D10B780D6900EB0C
:100848008300C2F30763816963F07B0363F31F626C
:100858004D61226070BC704730B44B78012B4FF06B
:10086800000226D00D7800EB85035C6D0123AB40B8
:1008780063F31F4225682B0415D48B6891F803C0D5
:10088800C988C3F30A0343F0805343F400430CF0D0
:10089800030C01F00F0143EA8C4343EA81530949F1
:1008A80029400B4323600369D9690A4330BCDA61E4
:1008B80070470C78A34000EB840463F30F02A4692B
:1008C800D8E700BF007833EC70B50025402600F566
:1008D8005D71A0F87453C0F87C6380F87753FFF714
:1008E800BBFF4FF4807300F58E71A0F81C31C0F87F
:1008F800246180F81F51A0F82251FFF7ADFFD0F80E
:10090800E835012280F812215B68807898472846EC
:1009180070BD00BF30B584890BB31D464FF6FF7E0E
:100928004FF47A73002A3CD012F8014BB0F808C093
:10093800013B1CF0020C9BB212D0A3B283814FF48E
:100948007A73B0F808C01CF0010C03F1FF3424D00E
:100958008489A4B209B101F8014B013DE2D130BD4F
:100968007345E3D1114B984209D0A3F578439842D7
:1009780019D003F580639842F1D14FF0020C0C4B6B
:100988000CEB8C0C03EB8C0CBCF8403001339BB2A5
:10099800ACF84030BCF8403030BDA3B27345D0D17C
:1009A800E0E7FF24C2E74FF0010CE8E70030014020
:1009B80000000020F8B5054690F910001D4C00EB2A
:1009C800800004EB8000AC68006BA4071CD5FFF71F
:1009D800A1FFAB689B0700D5F8BD174B17499A686C
:1009E800174B4FF4FA7000FB02F2A3FB023248687F
:1009F80092094B681B1A9A42FBD26B69002BEBD009
:100A08001A689B881383F8BD6C6914B12668A4889A
:100A18007483094C094EA46877684FEAC40E084CE1
:100A2800A4FB0E4E4FEA9E1E7468A4EB070CE64525
:100A3800FAD2CCE700000020600E0020001000E091
:100A4800D34D621010B50E4C94F8603082B023B9C3
:100A5800012084F8603002B010BD0521606EADF849
:100A6800001002236A4601A9FFF7A4FF9DF805308C
:100A780003F0010383F0010084F8603002B010BD78
:100A8800600E002070B5134C82B0F8B9A56E94F8CA
:100A98006030052623B900230120A36602B070BD8B
:100AA8000223606EADF800606A4601A9FFF782FF75
:100AB8009DF8053003F0010384F86030002BEAD07C
:100AC80062689542E6D8002002B070BD65680544AA
:100AD800DDE700BF600E002070B5224D224A6C6E23
:100AE80094F9103003EB830302EB8303A26882B00E
:100AF80092078DF80700186B0AD501230DF107023C
:100B08000021FFF707FFA3689B0713D502B070BD4C
:100B1800636913B11A689B885383AA681349144BF5
:100B28004E68D200A3FB023292094B689B1B9A4283
:100B3800FBD2E2E7AA680D490D4B4FF4FA7000FBAF
:100B480002F2A3FB0232486892094B681B1A9A42C8
:100B5800FBD26369002BD9D01A689B88138302B033
:100B680070BD00BF600E002000000020001000E0F3
:100B7800D34D621030B5044683B00020FFF782FFE2
:100B880008B903B030BD194D0620FFF7A5FFD822DC
:100B980095F86C3000920121002285F860108DF8DC
:100BA8000420BBB1230A210E220C686E8DF8033095
:100BB8008DF801108DF802208DF8044005236A464F
:100BC8000021FFF7F7FE6B6803F59C530833AB660B
:100BD80003B030BD230A220C8DF80230686E8DF800
:100BE80001208DF803400423E9E700BF600E0020D0
:100BF80010B50020FFF746FF00B910BD074C0620CE
:100C0800FFF76AFF0123C72084F86030FFF764FF0D
:100C1800636803F5A4430833A36610BD600E002083
:100C280090F91030214A70B503EB8303866802EB14
:100C38008303B20705460C46186B24D5D4E9012373
:100C48002168FFF767FED4E90423E168FFF762FE35
:100C5800AB689B0700D570BD154B16499A68164BB3
:100C68004FF4FA7000FB02F2A3FB023248689209C3
:100C78004B681B1A9A42FBD26B69002BEBD01A689F
:100C88009B88138370BD6B6913B11A689B88538363
:100C9800074B08499A68084B4E68D200A3FB0232FA
:100CA80092094B689B1B9A42FBD2C7E700000020C1
:100CB800600E0020001000E0D34D6210F0B504462D
:100CC80089B000200E461546FFF7DCFE10B9204615
:100CD80009B0F0BD1B4F0620FFF7FEFE012387F881
:100CE800603097F86C20CDF80CD0022300930023D5
:100CF8008DF804300293CAB1CDE906650593052243
:100D0800230E8DF8013004920DF10203220C1A70A3
:100D1800786E9C70220A5A700379022B0ED07B6879
:100D28002C4406332046BB6609B0F0BDCDE9052644
:100D3800042207950DF101030492E7E702A9FFF7E2
:100D48006FFFECE7600E002070B5054688B0002004
:100D58000E461446FFF796FEE0B103220092164AAB
:100D6800CDF80CD092F86C1000238DF80430029363
:100D780091B9CDE90561042107940DF101030491AE
:100D8800506E9D702A0C1A702A0A5A700379022B29
:100D98000DD0204608B070BD290E8DF80110052130
:100DA800CDE9063405960DF102030491E8E702A99E
:100DB800FFF736FF2046EDE7600E00202DE9F047EB
:100DC800038A8489A4B21C4082B045D081468846F3
:100DD8004FF0004501F14C0701F13406B4FA84F3F1
:100DE80025FA03F2D24391B2A9F8101014401B3B24
:100DF800B8F1000F5DD0042B2CD8DFE803F0504683
:100E08003B300300D8F80C30D9F82CA033B19B68DC
:100E180023B11FFA8AF108F104009847D8F8243062
:100E280033B19B6823B11FFA8AF108F11C00984777
:100E3800D8F83C302BB19B681BB11FFA8AF13046B9
:100E48009847D8F854302BB19B681BB11FFA8AF128
:100E580038469847002CC1D102B0BDE8F087D8F8D1
:100E68000C30D9F834105B6808F104009847002C5E
:100E7800B4D1F1E7D8F82430D9F838105B6808F114
:100E88001C009847002CA9D1E6E7D8F83C30D9F8DF
:100E98003C105B6830469847002C9FD1DCE7D8F8B7
:100EA8005430D9F840105B6838469847002C95D1E3
:100EB800D2E7042B07D8DFE803F00319140F0A0060
:100EC800D9F840300193019B002C87D1C4E7D9F8A9
:100ED8002C300193019BF7E7D9F834300193019B3B
:100EE800F2E7D9F838300193019BEDE7D9F83C30A7
:100EF8000193019BE8E700BF00283AD0036830B5AA
:100F080003F13F4314461B4A03F57E0302EB932388
:100F1800054683B0187BFFF70DFCAA882868009265
:100F2800B2FA82F301F00305C3F11F038DF80450F0
:100F3800C3F3CC0500EB85054A0903F007038DF8D8
:100F480007204FF00F0C2A6A9B009C400CFA03F311
:100F580022EA03032B622A6A02218DF80510144342
:100F680000218DF806102C626946FFF7C3F903B01B
:100F780030BD70476430000870B590F8CF2590F800
:100F8800D13590F8CE5590F8D0C590F8CC1590F89A
:100F9800CD6505EB02250CEB032C90F8D32590F8D2
:100FA800D23503EB0223012284B080F8112101F02D
:100FB8001F029BB2ADB21FFA8CFC012A04468DF8C1
:100FC8000810ADF80A50ADF80CC0ADF80E30C0F8F6
:100FD80040318DF809600AD0022A57D0002A3CD047
:100FE80001F08001FFF734FB002004B070BD90F8D9
:100FF8001231032B2BD15FFA8CFCBCF1010F26D8E0
:10100800D0F8E43502A99B689847BDF80E30002B4C
:10101800EAD1C4E94A33C4E94C3304214FF480725D
:1010280084F81111A4F81C2104F58E712046FFF7ED
:10103800A5FB636DC24A1A61E278012AD4D104F291
:10104800CC545C614FF0802219681A60CCE72046C6
:10105800FFF738FB002004B070BD092EF7D801A2B5
:1010680052F826F015110008211200085710000840
:101078005B12000857100008891200083511000893
:10108800571000089F110008CF11000801F06001F7
:1010980020295FFA8CF333D0012E00F05D81032EF6
:1010A80000F09181002E9FD190F81221022A00F0C1
:1010B8001881032ACBD11CF0800F40F0A08103EBEC
:1010C800830300EBC30393F87633002B00F0A2816F
:1010D8009C4B0122DA679C4A0223C4E94E334FF441
:1010E8008070002184F81131A4F81C01C4E94C3146
:1010F800C4E94A2204F58E712046FFF73FFB73E7E7
:10110800D0F8E43502A99B6898476DE790F812314A
:10111800023B012B9BD88B4BD0F818210021596733
:101128000AB102225A67894A0223D6E72E0A022EFA
:10113800ADF8063000F0CB81032E00F08F81012E30
:1011480085D1D0F8EC3580781B680DF106019847F9
:10115800BDF80630002B3FF447AFBDF80E20002A3B
:101168003FF442AF934228BF13464FF480720221E6
:10117800A4F81C210022C4E94A0084F81111C4E92A
:101188004E33C4E94C3204F58E712046ADF8063072
:10119800FFF7F4FA28E7012B7FF459AF90F81221F2
:1011A800022A00F04781032A7FF451AF4FF480717F
:1011B80000F588720220A4F81C11C4E94E3384F8A3
:1011C8001101002192E7EDB25E4E012D86F86D50B7
:1011D8003FF63DAF90F81231022B00F01F81032B30
:1011E8007FF435AF002D00F07D8190F810110129B2
:1011F80010D0D0F8E4355B68984796F86D10D4F8AD
:10120800E43584F810111B6820469847D4F8E8356F
:101218009B6898470023FCE690F81231023B012BAB
:101228003FF615AF012D7FF4DFAED0F8E435002589
:101238009B68C0F8185102A9984704224FF480739C
:10124800C4E94A55C4E94C5584F81121A4F81C3165
:10125800EAE6012D00F0CB80022D7FF4C5AE5FFADF
:101268008CF3002B7FF4C0AE02694FEA1C23023BCB
:101278005268032B00F25481DFE803F05A426A5E99
:101288005CEA03037FF4E3AE90F81221032A3FF4EB
:10129800DEAE016905F07F0680F8146108681A4619
:1012A80065F30A1202430A604FF480720421C4E90C
:1012B8004A33C4E94C3384F81111A4F81C2104F50D
:1012C8008E712046FFF75AFA636D1D4A1A61E2785B
:1012D800012A0DD0002E00F01081022384F812316B
:1012E80082E65A063FF480AE1946FFF7B1F97BE66D
:1012F80004F2CC525A614FF0802219681A60E9E76B
:10130800032363F3061201210E4D84F816110421FC
:10131800002384F811114FF48071A4F81C11C4E95A
:101328004A33C4E94C3304F58E712046AA677EE639
:10133800022363F30612E6E7052363F30612E2E7E6
:1013480018000860600E0020DC0E0020D40E00207B
:10135800042363F30612D6E790F81221022AC0D0BC
:10136800032A7FF474AE002D7FF43EAE13F07F02A3
:101378003FF450AF1CF0800F40F0C38003EB8301B3
:1013880000EBC10181F8742381F8765381F8755315
:10139800282101FB030300EB820293F87713506DB9
:1013A80003688A1E012A6FF35553D4F8E4258CBFCD
:1013B800C3F30071012161F31C739268036002A9F1
:1013C8002046904726E790F81221022A89D0032A5E
:1013D8007FF43DAE25B9590602D01946FFF738F912
:1013E800D4F8E43502A99B682046984712E7D0F85C
:1013F800E43502A99B68C0F8185198470AE703F03A
:101408007F0303EB830300EBC30393F81E31002B28
:101418007FF45EAE444B0022DA675CE6002D3FF4B1
:101428000CAF01210322D0F8E43580F8101180F8C0
:101438001221E8E63D4984F811214FF4807000221A
:10144800C4E94A11A4F81C01C4E94E33C4E94C327A
:1014580004F58E712046FFF791F9C5E5EDB2052D2B
:101468003FF6F5ADDFE805F02B231B130B03D0F88F
:10147800EC3580789B690DF10601984768E6D0F84D
:10148800EC3580785B690DF10601984760E6D0F885
:10149800EC3580781B690DF10601984758E6D0F8BD
:1014A800EC358078DB680DF10601984750E6D0F8F6
:1014B800EC3580789B680DF10601984748E6D0F82E
:1014C800EC3580785B680DF10601984740E6D0F866
:1014D800E43580789B6A0DF1060198474670C4F898
:1014E800F00535E60222D0F8E43580F8122180F8BC
:1014F80010515B68294698479FE6012384F812310A
:1015080072E5282303FB020181F81C2100EB82020B
:1015180081F81E5181F81D61906991F81F113FE70C
:10152800012363F30612EEE6600E0020D00E0020C1
:1015380010B5044629B990F81121032A0DD00020CE
:1015480010BDD0F8E4359B69002BF8D090F8122133
:10155800032AF4D19847002010BDD0F890230B46F9
:10156800D0F87C138A4213D9C078521A0128C4F8DB
:10157800902336D08A4228BF0A4692B2C4E9E223B1
:1015880004F55D71A4F874332046FFF7F7F8D6E741
:10159800D0F8E4351B691BB190F81221032A1ED03C
:1015A80000234FF480720421C4E94A33C4E94C3360
:1015B80084F81111A4F81C2104F58E712046FFF758
:1015C800DDF8636D104A1A61E278012AB7D104F296
:1015D800CC545C614FF0802219681A60AFE79847D5
:1015E800DEE78A42D4F88003A4F8743328BF0A4699
:1015F800084492B2C4E9E22304F55D71C4F880039B
:10160800C4F88403C0E700BF1800086038B5044672
:1016180049B990F81131022B11D094F81631012BE9
:1016280040D0002038BDD0F8E4355B69002BF8D0F5
:1016380090F81221032AF4D19847002038BDD0F839
:101648003831D0F82421934235D9C178012908BF0F
:10165800D0F82811A3EB020318BFD0F82821C0F84E
:10166800383108BF52189BB24FF480710025C0E989
:101678004C35A0F81C11C0E94A2200F58E71FFF71D
:101688007DF8E378C4F88053012BC4E9E255A4F847
:10169800745308BFC4F8845304F55D712046FFF7FE
:1016A8006DF8BAE72A4B2269996F5160002384F8D4
:1016B8001631002038BDD0F83C31B3FBF2F502FBFF
:1016C8001535ADB99A4213D8D0F8402193420FD2BC
:1016D8004FF48073A0F81C31C0E94A55C0E94C5555
:1016E80000F58E71FFF74AF8E378C4F84051C9E76E
:1016F800D4F8E435DB681BB194F81221032A23D00F
:10170800E2780023012A4FF0050108BFC4F88433AA
:10171800C4E9E23384F81111C4F88033A4F87433AF
:1017280004F55D712046FFF729F8636D094A1A61CF
:10173800E278012A7FF471AF04F2CC525A614FF07B
:10174800802219681A6068E720469847D8E700BFE2
:10175800600E00201800086038B50409013C032C0D
:1017680019D80F4D05EB440200F00F03918A41FA96
:1017780003F212F0010210D001209840013808400D
:101788002C4401F0D9F9237F064A184400EB4000A5
:1017980002EB800038BD002038BD104638BD00BFC0
:1017A80064300008E00E002010B582B0FFF7D4FFC7
:1017B800C8B103680D4A03F13F4303F57E030446AD
:1017C80002EB932340F61A610022187BE180227213
:1017D800FEF7B0FFA28820684FF080736946CDE914
:1017E8000023FEF787FD02B010BD00BF643000087B
:1017F8002DE9F04FA54AA64C944287B080F0D480DA
:10180800C0B203E00C34944280F0CE806379312B6F
:10181800F8D12379022BF5D1E3798342F2D1D4F8B8
:101828000080B8F1000F00F0BF800023C8F8043032
:10183800C8F80830C8F80C30C8F81030C8F81430A8
:10184800C8F81830C8F81C30C8F80040227988F861
:101858000420A179C8F808100091012A217AC8F853
:101868000C1000F0E080022A40F0A580E07AFFF733
:1018780073FF94F80AA094F9095088F81050C8F832
:1018880018005046FFF768FF0146C8F81400002802
:1018980000F0F1807F4F05EB850307EB8303AE0073
:1018A8001C6B002C00F0E78093F84220002A00F01F
:1018B800D1800B68784A03F13F4303F57E0302EBBE
:1018C800932340F60E62187BCA8000230B72FEF742
:1018D80031FF40F201228B8805920DF1100A086849
:1018E80004935146FEF706FDD8F8143013B11A6870
:1018F8009B88138398F80430DFF8AC91022BC9F861
:10190800648063D03226FEF7DBFD04460D46FEF701
:10191800D7FD001B61EB0501B0F57A7F71F100037B
:10192800F5D3013EEFD19F2352464046049303A9C5
:1019380004238DF80D60FFF73DF89DF80E009DF823
:101948000D30564A56493E82000240EA03409DF84F
:101958000F30BE831843C7E90566524B35463446F7
:1019680001E011469A68884202D19C88DE880125E8
:101978000833002AF5D1D5B1BE833C82002C50D063
:101988004FF480737B82B3B21B0203FB04F4B4F1FF
:10199800807FC7E90534BA7711D80123284689F82A
:1019A800603007B0BDE8F08F3F4B00255D662846E4
:1019B80007B0BDE8F08F3C4A1D465366F7E70123A0
:1019C800B72089F86C30FFF787F8E6E798F9102018
:1019D800364902EB820207EB8202126B8A4235D04B
:1019E800A1F578418A4233D001F580618A4289D1D4
:1019F80003EB830307EB8303DB6B9989138823F0DD
:101A080040031B041B0C1380138823F038031B04AA
:101A18001B0C0B43138013889BB243F040031380C5
:101A280070E72546C3E7E07ADFF87C90194FFFF7A7
:101A380093FE627AA37A88F81130C8F8180088F8FB
:101A48001020C9F864800DF1100A5BE70023CFE786
:101A58000123CDE793F838100846FEF76BFE4A09D4
:101A6800012301F01F01023A8B40032A25D8DFE841
:101A780002F0C5CB1FBF5046FFF796FE0A4B002564
:101A8800C8F8005088F804505D6690E7D031000827
:101A98007C31000800000020643000081720C200D4
:101AA8001620C20084300008600E0020003001407B
:101AB80082490A6922EA03030B61731907EB83035E
:101AC80093F83500FFF748FE6A1C5FFA82F903466F
:101AD80020B140F60A3180F80890C180711907EBEF
:101AE8008101019391F83700FFF736FE019B834689
:101AF80020B140F60A5180F80890C180711907EBAF
:101B08008101019391F83600FFF726FE019B82467A
:101B180020B140F60A4280F80890C280009A184620
:101B2800731907EB830312F0040993F8392057D08F
:101B38004A210092FFF7E0F9009A58462A2106EB5D
:101B4800050B07EB8B0BFFF7D7F95046009A0A21D4
:101B5800FFF7D2F99BF834A0BAF1000F40F0A58046
:101B6800574B9C4200F09680564B9C4200F0878071
:101B7800554B9C4278D0554B9C426AD0544B9C4262
:101B88005CD0544B9C424ED02388B9F1000F03F42B
:101B9800415214BF00230323134343F445732380A6
:101BA800A38B23F400631B041B0CA383072323824A
:101BB80023889BB243F040032380BAF1000F29D158
:101BC800731907EB8303D8F81410012283F8422015
:101BD80000297FF46EAE98F804300DF1100A8BE6F8
:101BE8000A210092FFF788F9009A58460A21A6E7C9
:101BF80032494A6922EA03034B615EE72F494A6A80
:101C080022EA03034B6258E72C490A6A22EA0303D3
:101C18000B6252E75046FFF79FFD0028D0D00368BB
:101C280082881A83CCE703F564435A6A42F40012A7
:101C38005A625A6A22F400125A62A5E703F5684309
:101C48005A6A42F480125A625A6A22F480125A621C
:101C58009AE703F582335A6A42F400525A625A6A82
:101C680022F400525A628FE703F5FE331A6A42F4EF
:101C780000421A621A6A22F400421A6284E703F5E3
:101C880000331A6A42F480421A621A6A22F48042C5
:101C98001A6279E703F584335A6A42F480525A6229
:101CA8005A6A22F480525A626EE75046FFF754FD92
:101CB8009BF839200921FFF71FF951E70038024046
:101CC8000030014000380040003C00400034014032
:101CD80000500140005401402DE9F04FB34F97F8F0
:101CE800803387B006469BB3B14C002E0CBF08204A
:101CF800062025462246002305E00133092B02F180
:101D0800060200F07F8111788142F6D14FF0060873
:101D180008FB0358FEF728FCB8F80490B8F802301E
:101D28004268A9EB0303B0F8029002FB09F9824666
:101D380003FB099900252378072B59D00135092D74
:101D480004F10604F7D10024204607B0BDE8F08F5F
:101D5800984C994DAC4203D30BE00C34AC4208D2FA
:101D68002379022BF9D1A07A0C34FFF71DFDAC4280
:101D7800F6D3924D8E483622002101F067F9D5F846
:101D880080300020984704460028DDD0D5F8A030E0
:101D980080353D619847836833B30388844D013BA0
:101DA800ADF80C300022062404FB02F3E95C032999
:101DB80000F016810132092AF6D1416803AA0720EA
:101DC800FEF7FAFB03AA4FF480110820FEF7F4FB94
:101DD80003AA4FF480110620FEF7EEFBBDF80C2095
:101DE80000210220FEF7CAFB012387F880337BE736
:101DF800FEF7BAFB062303FB05754068EB8C0C2243
:101E080003FB00F00DEB0201FEF7A8FB00289AD0B7
:101E1800049B994597D36A4AC2F10162934292D8CA
:101E2800684B1A69002A04DA674A5A6002F1883254
:101E38005A606348DFF8A491FEF7E0FB8346484602
:101E4800FEF7DCFBBBF1FF3F054600F0AC80421C0F
:101E580000F0A98000210846FEF720FB0121084672
:101E6800FEF71CFBBBF10B0F4CD8564CEDB20EB96C
:101E78005D4542D0FEF7CAF909284FEACB0C11D0CC
:101E880000210120FEF70AFB0C464E4A1369002187
:101E980043F0004308461361FEF700FB0120FEF7FC
:101EA800FDFA51E7226922F440722261216941F466
:101EB80000712161216921F0F801216122694CEA50
:101EC800020242F002022261226942F48032226157
:101ED800FEF79CF9226922F0020222612269092890
:101EE80022F0F8022261CBD1D7F89C22B7F8A012D1
:101EF8005069014214BF518311830BF1010BBBF1EF
:101F08000C0FB4D100210120FEF7C8FA0846FEF7ED
:101F1800C5FA0120FEF7C2FAB8F80280DAF80430F0
:101F280003FB08F301931D1D002E5FD04FF0016BDA
:101F3800264C5C4528BF0DF1080820D2244F4FF0ED
:101F4800000A0EB94C4528D0042202A92846FEF7FB
:101F580005FB02992046FEF7ADF909280DF108089E
:101F680021D11C4B0AF1010A03FB0AF2B7EB722FCD
:101F780005F1040504F104043DD2A345E1D8042287
:101F880041460198FEF7EAFA02990D48FEF792F9E0
:101F9800A0F109035C425C4177E70F4CA4EB09020E
:101FA8005C451544D0D300246FE700BF600E0020C5
:101FB800840E00207C310008D03100080000002089
:101FC80000800008003C02402301674504800008A7
:101FD80099991900CDCCCCCC0000100800000E084F
:101FE8003B44DB8C013BADF80C30E6E6049B084A29
:101FF80002EB030B9CE70020FEF740FA0120FEF7F6
:102008003DFABAE7FEF7B0FA00239B88FFDE00BF6F
:10201800008000081049114BD1F8882042F4700262
:1020280010B4C1F888201A680D4C002042F0010253
:102038001A6098601A6822F0847222F480321A605A
:102048005C601A68074C22F480221A60D8608C60A1
:102058005DF8044B704700BF00ED00E00038024017
:102068001030002400000008704700BF0148FEF748
:1020780087B800BFA80000200148FEF781B800BF5C
:10208800F40200200148FEF77BB800BF400500209D
:102098000148FEF775B800BF8C0700200148FEF71D
:1020A8006FB800BFD809002001480021FEF786BE9E
:1020B8000000014008B505480021FEF77FFEBDE895
:1020C800084003480021FEF779BE00BF0000014028
:1020D8000040014008B505480021FEF76FFEBDE845
:1020E800084003480021FEF769BE00BF0000014018
:1020F8000044014008B505480021FEF75FFEBDE831
:10210800084003480021FEF759BE00BF0000014007
:102118000048014000214FF08040FEF74FBE00BF4D
:1021280001480021FEF74ABE000400400148002192
:10213800FEF744BE0008004001480021FEF73EBEFD
:10214800000C004001480021FEF738BE00040140A1
:1021580008B505480021FEF731FEBDE808400348F0
:102168000021FEF72BBE00BF00040140001800400C
:1021780008B505480021FEF721FEBDE808400348E0
:102188000021FEF71BBE00BF00040140001C0040F8
:1021980008B505480021FEF711FEBDE808400348D0
:1021A8000021FEF70BBE00BF0004014000200040E4
:1021B8000348D0F82C3C13B100F54260184770472B
:1021C800000000200348D0F84C3C13B100F54460EF
:1021D80018477047000000200348D0F86C3C13B142
:1021E80000F5466018477047000000200348D0F803
:1021F8008C3C13B100F54860184770470000002078
:102208000348D0F8AC3C13B100F54A601847704752
:10221800000000200348D0F8CC3C13B100F54C6016
:1022280018477047000000200348D0F8EC3C13B171
:1022380000F54E6018477047000000200348D0F8AA
:102248000C3D13B100F5506018477047000000209E
:102258000348D0F82C3D13B100F552601847704779
:10226800000000200348D0F84C3D13B100F554603D
:1022780018477047000000200348D0F86C3D13B1A0
:1022880000F5566018477047000000200348D0F852
:102298008C3D13B100F558601847704700000020C6
:1022A8000348D0F8AC3D13B100F55A6018477047A1
:1022B800000000200348D0F8CC3D13B100F55C6065
:1022C80018477047000000200348D0F8EC3D13B1D0
:1022D80000F55E6018477047000000200348D0F8FA
:1022E8000C3E13B100F560601847704700000020ED
:1022F800704700BF704700BF704700BF10B5124C51
:1023080094F88E3323B9114B4FF480225A6110BDD3
:102318004FF0E022D2F8103D23F00603C2F8103D3A
:10232800FFF778FE94F88E33002BECD0D4F8943372
:102338009B68DB07E7D5D4F89024136823F00301E2
:1023480061F307031360DEE7600E0020003C0140E4
:102358002DE9F04FB24CD4F890335A69D2078BB0BC
:1023680002D50BB0BDE8F08F5A699B6912EA0309E0
:10237800F7D0C9F3074319F4002F009340F0E28027
:10238800009B590743D419F0020F5FFA89F603D06E
:10239800D4F8903302225A61B9F1000FC0F2EA81F1
:1023A80019F4006FC9F3072540F04881330708D5B1
:1023B8009C4B9D48D3F82C3E9847D4F8903308227C
:1023C8005A61F70600F1C081EE0600F16D81A90699
:1023D80000F1E980009BDA0609D5924B9248D3F8C0
:1023E8003C3E9847D4F890334FF480125A61009BD2
:1023F8009B06B6D58B4B8C48D3F8403E9847D4F80B
:1024080090334FF400125A610BB0BDE8F08FD4F846
:1024180094239369D26913401FFA83FABAF1000F23
:10242800B1D0DFF81482CDF80C900023A8F118057C
:102438001F461AF0010F78D0FEB2D4F8942304EBAB
:1024480086031069D3F89C13536B8968F340DB014A
:10245800DBB203430B4013F00109D9B240F0A68167
:102468000A0740F1C381D8F80020082393609946F1
:1024780019F0800F59D0D5E94CC0D5F82431D8F8D7
:1024880000E0ACEB00018B42DEF8182028BF0B46B9
:1024980092B20333B2EB930F47D9D4F8942394F84C
:1024A8008793323604EB8603CDE901786746984670
:1024B8009446874237D9D5F82431391A994228BF2A
:1024C800194601F1030BD5F828314FEA9B0BB9F1F6
:1024D800000F10D18AB203329210D8F88C630AD058
:1024E8004846013053F8047B37608242F9D1D5E978
:1024F8004C70D5F8283108440B44B842C5F8283147
:10250800C5F83401DEF818300AD195F81C110122FB
:1025180002FA01F1DCF8342022EA0102CCF8342076
:102528009BB29B45C5D3DDE901785FEA5A0A07F1FA
:10253800010708F1040805F128057FF47AAFDDF8F2
:102548000C9020E7D4F894339D69DB691D402D0C6D
:102558003FF416AF04F56178DFF8C8B004F5767675
:102568000027C24608E06D0807F1010706F10406D6
:1025780008F128083FF404AFEB07F4D5F9B204EBEF
:102588008103D4F89423D3F8D8339B685269134055
:10259800D807DAB200F13A81930740F162813368D3
:1025A80002229A60DFE7D4F89433D4F89C139A682F
:1025B8000868C2F34102022A06BF032262F30A0036
:1025C8006FF30A0008605A6842F480725A6006A8DD
:1025D800FDF7DAFED4E9E421D368079D6FF38D2374
:1025E800D36088681149C0F34100014491F8D010C4
:1025F800032900F05C810E490E480126294484F81D
:10260800866381424FF04006A4F8886300F2A981EE
:102618000E2161F38D234FF40051D3605161D9E647
:10262800600E002000000020E41100206430000843
:10263800401E1BFF3F420F00FC11002000238DF8B5
:10264800133094F896348DF81330B54BB548D3F859
:10265800343E9847D4F89433D4F89023986894F883
:102668008E334FF400615161002B3FF49FAEC207D7
:102678007FF59CAE94F89934012B7FF497AE9DF8C2
:102688001330032B7FF492AED4F89034A6491A681D
:1026980042F001021A601A6842F003021A600B69DC
:1026A80043F006030B6181E6D4E9E416736800275A
:1026B80023F0010373600597059B43F020030593FE
:1026C800059B67F38A130593059B0B610B690593BB
:1026D800BC46964B03E00A690592013B02D0059A75
:1026E8009006F8D494F8852352B1914B03EB820EEF
:1026F800FF2253F8040F8260D86B73458260F8D1CB
:102708000B2363F3070763F3070C4FF0FF33B36141
:102718004FF00113F3617761C6F810C0336885483C
:102728006FF30A13336094F88723D4F8D833012A57
:10273800186100F0B5804FF480534B61784B7948AD
:10274800D3F8303E984742E6D4F890339A6922F09D
:1027580010029A611A6AC2F34340022802F00F017C
:1027680000F0B080062800F087809A6942F01002D5
:102778009A6129E694F88E333BB1D4F89024136813
:1027880023F0030161F307031360D4F89423644B27
:102798006448D3F8381E536823F001035360884710
:1027A800D4F890334FF000425A61F9E5516BD8F8EC
:1027B80000005B4B4FF0010C0CFA07FC21EA0C01FE
:1027C80051630122D3F8243E826031465548984728
:1027D80094F88733012B00F0B18019F0020F3FF411
:1027E80047AED8F8003002229A609EE6CB0604D5A0
:1027F800D8F8003010229A6097E6480658BF8946F4
:10280800EBD5D8F8003040229A608EE694F88723FA
:10281800336801208242986007D11A69D8F87C335E
:10282800C2F312029B1AC8F88C33DBF8203E5046DC
:10283800984794F88733012B7FF495AE002F7FF4E7
:1028480092AE94F89534052B7FF48DAED4F8D83336
:10285800384A1A61384A5A611A684FF080221A6059
:1028680081E610077FF57FAEDBF8283E5046984793
:10287800336808229A6076E601EB810104EBC10116
:10288800D4F85464D1F81007C2F30A12024430682D
:10289800C4F850093068C4F85409C1F8102764E72F
:1028A800254A5A611A684FF080221A6043E70021CE
:1028B80084F886134FF40071A4F88813092161F392
:1028C8008D23A8E647F6F07010423FF44EAFC2F3EE
:1028D8000A1201EB810004EBC00002F1030C5FEA6D
:1028E800AC0CD0F80467D4F854E44FEA810818BF58
:1028F800002006D00130DEF8007046F8047B8445DD
:10290800F8D1414404EBC101D1F804071044C1F8DF
:102918000407D1F810070244C1F8102725E700BFC3
:1029280000000020E411002000ED00E0400D03004D
:10293800F811002018000860B0170020002F7FF45D
:102948004CAF94F89534042B7FF447AFD4F8D833C0
:102958002B4A1A612B4A5A611A684FF080221A6072
:102968003BE72948A5F57401A1F51051814203D828
:102978000D2161F38D234EE62449254829448142DF
:1029880003D20C2161F38D2345E62248A5F18C7111
:10299800A1F54341814203D80B2161F38D233AE627
:1029A8001D491E482944814203D20A2161F38D231F
:1029B80031E61B491B482944814203D2092161F3AE
:1029C8008D2328E61848A5F1B771A1F55851814221
:1029D80003D2082161F38D231DE6144914482944C4
:1029E800814203D2072161F38D2314E6114912486D
:1029F8002944814234BF0621052161F38D230AE66B
:102A080018000860B0170020DFC810002013FBFE74
:102A180020D61300FF69180000D3CEFE40771B00B4
:102A2800C05BB3FEC091210040AC2700C01D6AFE08
:102A380040E13300803C36FEE09C41001B4B1C48C3
:102A4800196C1C4A10B441F08051012419640462C5
:102A58005321FF24CA205462506251625B6FDB002D
:102A680085B013D40023144902930291029A1348A3
:102A780004320292029A136003930391039B039317
:102A8800039B186005B05DF8044B70470A4B0022A1
:102A980001920193019B0193019A084B12689A4293
:102AA800E0D105B05DF8044B704700BF0038024024
:102AB80000000E42002800405028004076614E6910
:102AC80000B583B00D49002200920091009B0433A9
:102AD8000093009B1B68012B02D003B05DF804FB38
:102AE80001920191019B064904330193019B1A60ED
:102AF8000B6883F308884B689847FEE75028004026
:102B08000000FF1F10B4EFF31182102383F3128823
:102B1800084B59684FF0E020013159608169D9604C
:102B280000241C600369D3B283F311885DF8044B59
:102B3800704700BF600E0020430803F05533C01AE9
:102B4800830803F0333300F03330184400EB1010DF
:102B580000F00F3000EB002000EB0040000E704743
:102B68001C48016B41F480110163BFF34F8FFFF7DD
:102B780065FFFFF7A5FF002103E0174B5B584350A3
:102B880004311648164B42189A42F6D3154A02E009
:102B9800002342F8043B144B9A42F9D3134A02E04B
:102BA800002342F8043B124B9A42F9D3114A03E03E
:102BB8005FF0A53342F8043B0F4B9A42F8D30F4815
:102BC800016841F470010160FFF724FA00F01AF877
:102BD8007047FEE700380240D031000800000020AE
:102BE800600E0020600E0020DC180020000000109D
:102BF80000000010F8E70010F8FF001088ED00E072
:102C0800FEE700002DE9F04389B00023104A019344
:102C18000293136843F48033136003E0019BB3F518
:102C2800A04F09D0136803F400330293019B0133CA
:102C38000193029B002BF1D0054B1B6813F4003362
:102C480018BF01230293029D012D03D000BFFDE7A9
:102C580000380240B04BB1491A6CB14842F080527A
:102C68001A640A6842F440420A609A689A609A684C
:102C780042F400429A609A6842F4A0529A605860FE
:102C88001A6842F080721A601A689101FCD5A54A48
:102C980040F205711160996821F003019960996803
:102CA80041F00201A2F580629960936803F00C0379
:102CB800082BFAD1936803F00C03042B00F027814A
:102CC800082B00F06C81984C984BC4F84C3E924B02
:102CD800D4F84C1E9A68964E9648C2F303122244C2
:102CE8004FF0000892F8502ED140934AC4F84C1E79
:102CF800F260924A596FB2605A6B22F080025A63AE
:102D08005A6F42F080725A67196B8D4A0A431A63E8
:102D18005A6B5A639A6B9A631A6C8A490A431A6403
:102D2800596C894A0A435A6404A948F2FF73CDE9E9
:102D380004384FF6FF77FDF7DDFA00F58060049759
:102D4800FDF7D8FA00F580600497FDF7D3FA00F58F
:102D58008060FDF7CFFA00F58060FDF7CBFA00F54B
:102D68008060FDF7C7FA00F58060FDF7C3FA00F54B
:102D78008060FDF7BFFA00F58060FDF7BBFA0846F2
:102D8800FDF702FBD6F8FC10704B7148049A714F9E
:102D980041F08071C6F8FC10C3F8B00FC3F8048086
:102DA800196841F001011960D4F84C3E4FF47A716A
:102DB800B3FBF1F3013BB3F1807F6749B2FBF1F25A
:102DC800BA6009D24FF0E0225361F02386F823302D
:102DD8000723C2F81880136162B6DFF890C1554C1A
:102DE8005E49DFF88CE101263CF8020B002340FA2B
:102DF80003F2D20704D506FA03F20C608A800C317C
:102E08000133102BF3D104F580647445ECD1002113
:102E18000846FDF743FB0120DFF85891FDF73EFB1C
:102E28000446C84640F2162658F8041B91B10B68B0
:102E38000D7203F13F4303F57E0309EB9323CE8024
:102E4800187BFDF777FC8B88CDE90434086804A962
:102E5800FDF750FA0135042DE6D100210846FDF7AB
:102E68001DFB0120FDF71AFB0846FDF717FB0120A3
:102E7800FDF714FB4FF00A08D7F89C32B7F8A022E8
:102E880059690A4214BF5A831A83D7F8A832B7F887
:102E9800AC2259690A4214BF5A831A83C826FDF71F
:102EA8000FFB04460D46FDF70BFB031B61EB050109
:102EB800B3F57A7F71F10003F5D3013EEFD1B8F194
:102EC8000108D9D1264CCDF80C800394039B043318
:102ED8000393039B1868C31E012B4DD9214C23680B
:102EE800013378D00F490C4B0A6822F480720A60CB
:102EF80000251A6A1D625A6A5D6272B6236883F3F6
:102F0800088863689847284609B0BDE8F083064CEE
:102F1800154BC4F84C3EDAE6003802400070004019
:102F280008544007003C0240000000200024F40040
:102F380000ED00E0000002400003FA050000000870
:102F4800FF916700FFC9FE1033570700001000E02B
:102F580055CEACC5600E002040420F00E00E0020A8
:102F6800502800400080000800127A0078300008DD
:102F78000010024064300008033818BF0120FEF733
:102F8800ABFECDF810800494049B2B4C04330493BF
:102F98000028049B14BF052206221A60A2E7536882
:102FA8005168264C13F4800F01F03F01536814BF99
:102FB800234A244AB2FBF1F1234A5268C2F3014280
:102FC800C3F38813013201FB03F35200B3FBF2F39E
:102FD800C4F84C3E7BE60120FEF77EFE002881D136
:102FE8004146FDF75BFA0120FDF758FAD7F89C3205
:102FF800B7F8A02259690A4214BF5A831A83D7F82E
:10300800A832B7F8AC2259690A4214BF5A831A8306
:103018004FF4FA66FDF754FA04460D46FDF750FAE8
:10302800031B61EB0502B3F57A7F72F10003F5D358
:10303800013EEFD1DAE700BF008000080000002061
:1030480000127A000024F4000038024002440346CB
:10305800934200D1704703F8011BF9E7FC100020E8
:103068000811002000000000808182838485000010
:10307800FFFFFFFFFFFFFFFF001020301620C200F8
:10308800400000011720C200800000011920C20082
:1030980000020001152020002000000117BA2000BE
:1030A8008000000118BA2000000100011440EF0060
:1030B800100000011540EF00200000011630EF005D
:1030C800400000011640EF00400000011740EF00EB
:1030D800800000011770EF00800000011840EF0029
:1030E8000001000118405E00000100011870EF00A7
:1030F800000100011940EF00000200011760010003
:103108008000000118600100000100011640E00085
:103118000004100017301C00800000011540010059
:10312800200000010000000000000000030201026E
:10313800380000002800000008000000000000001F
:1031480000000000380000003000000010000000FF
:08315800080000000000000067
:10316000F9030800F4170020EC170020000000000D
:04317000000000005B
:08317400000000000000000053
:10317C00FC17002002020000040014001C180020A0
:10318C00010C0000000076003C180020011A000021
:10319C0000000D005C1800200229050000011D0034
:1031AC007C18002002310000000230009C18002026
:1031BC000133000000003C00BC1800200136000068
:0431CC0000002000DF
:1031D00000000000010203040102030406070809BD
:1031E00000000001000000000000000000000000DE
:1031F00010000400400001008000070000000000F3
:1032000000300140141517164C0500004C31000821
:1032100000000000003800401D2D2F2E6E0500001C
:103220003831000800000000003C00403023252415
:103230006F060000383100080000000000000000A8
:10324000000000000000000000000000000000007E
:10325000F91700084D0A00088D0A00087D0B0008C8
:10326000F90B0008C50C0008510D00080000000013
:103270005D05000800100140000000000000000093
:10328000000000000000000000000000000000003E
:10329000000000000000000000000000000000002E
:1032A000000000000000000000000000000000001E
:1032B0001A190000000000000000000000000000DB
:1032C00000000000000000000000000000000000FE
:1032D00000000000000000000000000000000000EE
:1032E00000000000000000000000000000000000DE
:1032F00000000000000000000000000000000000CE
:1033000000000000000000000000000000000000BD
:1033100000000000000000000000000000000000AD
:10332000000000000000000000000000000000009D
:10333000000000000000000000000000000000008D
:10334000000000000000000000000000000000007D
:10335000000000000000000000000000000000006D
:10336000000000000000000000000000000000005D
:10337000000000000000000000000000000000004D
:10338000000000000000000000000000000000003D
:10339000000000000000000000000000000000002D
:1033A000000000000000000000000000000000001D
:1033B000000000000000000000000000000000000D
:1033C00000000000000000000000000000000000FD
:1033D00000000000000000000000000000000000ED
:1033E00000000000000000000000000000000000DD
:1033F00000000000000000000000000000000000CD
:1034000000000000000000000000000000000000BC
:1034100000000000000000000000000000000000AC
:10342000000000000000000000000000000000009C
:10343000000000000000000000000000000000008C
:10344000000000000000000000000000000000007C
:10345000000000000000000000000000000000006C
:10346000000000000000000000000000000000005C
:10347000000000000000000000000000000000004C
:10348000000000000000000000000000000000003C
:10349000000000000000000000000000000000002C
:1034A000000000000000000000000000000000001C
:1034B0000000000000000000440007250500000097
:1034C0000044004000000000000000000000000078
:1034D00000000000000000000000000000000000EC
:1034E00000000000000000000000000000000000DC
:1034F00000000000000000000000000013120000A7
:1035000000000000000000000000000000000000BB
:1035100000000000000000000000000000000000AB
:10352000000000000000000000000000000000009B
:10353000000000000000000000000000000000008B
:10354000000000000000000000000000000000007B
:10355000000000000000000000000000000000006B
:10356000000000000000000000000000000000005B
:10357000000000000000000000000000000000004B
:10358000000000000000000000000000000000003B
:10359000000000000000000000000000000000002B
:1035A000000000000000000000000000000000001B
:1035B000000000000000000000000000000000000B
:1035C00000000000000000000000000000000000FB
:1035D00000000000000000000000000000000000EB
:1035E00000000000000000000000000000000000DB
:1035F00000000000000000000000000000000000CB
:1036000000000000000000000000000000000000BA
:1036100000000000000000000000000000000000AA
:10362000000000000000000000000000000000009A
:10363000000000000000000000000000000000008A
:10364000000000000000000000000000000000007A
:10365000000000000000000000000000000000006A
:10366000000000000000000000000000000000005A
:10367000000000000000000000000000000000004A
:10368000000000000000000000000000000000003A
:10369000000000000000000000000000000000002A
:1036A000000000000000000000000000000000001A
:1036B000000000000000000000000000000000000A
:1036C00000000000000000000000000000000000FA
:1036D00000000000000000000000000000000000EA
:1036E00000000000000000000000000000000000DA
:1036F00000000000000000000000000000000000CA
:10370000000000000071072605000000004800408E
:1037100000000000000000000000000000000000A9
:103720000000000000000000000000000000000099
:103730000000000000000000000000000000000089
:1037400000000000000000003B3A00000000000004
:103750000000000000000000000000000000000069
:103760000000000000000000000000000000000059
:103770000000000000000000000000000000000049
:103780000000000000000000000000000000000039
:103790000000000000000000000000000000000029
:1037A0000000000000000000000000000000000019
:1037B0000000000000000000000000000000000009
:1037C00000000000000000000000000000000000F9
:1037D00000000000000000000000000000000000E9
:1037E00000000000000000000000000000000000D9
:1037F00000000000000000000000000000000000C9
:1038000000000000000000000000000000000000B8
:1038100000000000000000000000000000000000A8
:103820000000000000000000000000000000000098
:103830000000000000000000000000000000000088
:103840000000000000000000000000000000000078
:103850000000000000000000000000000000000068
:103860000000000000000000000000000000000058
:103870000000000000000000000000000000000048
:103880000000000000000000000000000000000038
:103890000000000000000000000000000000000028
:1038A0000000000000000000000000000000000018
:1038B0000000000000000000000000000000000008
:1038C00000000000000000000000000000000000F8
:1038D00000000000000000000000000000000000E8
:1038E00000000000000000000000000000000000D8
:1038F00000000000000000000000000000000000C8
:1039000000000000000000000000000000000000B7
:1039100000000000000000000000000000000000A7
:103920000000000000000000000000000000000097
:103930000000000000000000000000000000000087
:103940000000000000000000000000000000000077
:103950000072072705000000004C00400000000036
:103960000000000000000000000000000000000057
:103970000000000000000000000000000000000047
:103980000000000000000000000000000000000037
:103990000000000011100000000000000000000006
:1039A0000000000000000000000000000000000017
:1039B0000000000000000000000000000000000007
:1039C00000000000000000000000000000000000F7
:1039D00000000000000000000000000000000000E7
:1039E00000000000000000000000000000000000D7
:1039F00000000000000000000000000000000000C7
:103A000000000000000000000000000000000000B6
:103A100000000000000000000000000000000000A6
:103A20000000000000000000000000000000000096
:103A30000000000000000000000000000000000086
:103A40000000000000000000000000000000000076
:103A50000000000000000000000000000000000066
:103A60000000000000000000000000000000000056
:103A70000000000000000000000000000000000046
:103A80000000000000000000000000000000000036
:103A90000000000000000000000000000000000026
:103AA0000000000000000000000000000000000016
:103AB0000000000000000000000000000000000006
:103AC00000000000000000000000000000000000F6
:103AD00000000000000000000000000000000000E6
:103AE00000000000000000000000000000000000D6
:103AF00000000000000000000000000000000000C6
:103B000000000000000000000000000000000000B5
:103B100000000000000000000000000000000000A5
:103B20000000000000000000000000000000000095
:103B30000000000000000000000000000000000085
:103B40000000000000000000000000000000000075
:103B50000000000000000000000000000000000065
:103B60000000000000000000000000000000000055
:103B70000000000000000000000000000000000045
:103B80000000000000000000000000000000000035
:103B90000000000000000000000000000073083476
:103BA0000500000000500040000000000000000080
:103BB0000000000000000000000000000000000005
:103BC00000000000000000000000000000000000F5
:103BD00000000000000000000000000000000000E5
:103BE0003C42000000000000000000000000000057
:103BF00000000000000000000000000000000000C5
:103C000000000000000000000000000000000000B4
:103C100000000000000000000000000000000000A4
:103C20000000000000000000000000000000000094
:103C30000000000000000000000000000000000084
:103C40000000000000000000000000000000000074
:103C50000000000000000000000000000000000064
:103C60000000000000000000000000000000000054
:103C70000000000000000000000000000000000044
:103C80000000000000000000000000000000000034
:103C90000000000000000000000000000000000024
:103CA0000000000000000000000000000000000014
:103CB0000000000000000000000000000000000004
:103CC00000000000000000000000000000000000F4
:103CD00000000000000000000000000000000000E4
:103CE00000000000000000000000000000000000D4
:103CF00000000000000000000000000000000000C4
:103D000000000000000000000000000000000000B3
:103D100000000000000000000000000000000000A3
:103D20000000000000000000000000000000000093
:103D30000000000000000000000000000000000083
:103D40000000000000000000000000000000000073
:103D50000000000000000000000000000000000063
:103D60000000000000000000000000000000000053
:103D70000000000000000000000000000000000043
:103D80000000000000000000000000000000000033
:103D90000000000000000000000000000000000023
:103DA0000000000000000000000000000000000013
:103DB0000000000000000000000000000000000003
:103DC00000000000000000000000000000000000F3
:103DD00000000000000000000000000000000000E3
:103DE000000000000000000000740835050000001D
:103DF000001000000060024010600240000000005F
:103E0000000000000B0000000000000000000000A7
:103E10000011000000600240286002400000000025
:103E2000060000000C000000000000000000000080
:103E300000120000006002404060024000000000EC
:103E4000100000000D000000000000000000000055
:103E500000130000006002405860024000000000B3
:103E6000160000000E00000000000000000000002E
:103E7000001400000060024070600240000000007A
:103E8000200000000F000000000000000000000003
:103E90000015000000600240886002400000000041
:103EA00026000000100000000000000000000000DC
:103EB0000016000000600240A06002400000000008
:103EC00030000000110000000000000000000000B1
:103ED0000017000000600240B860024000000000CF
:103EE000360000002F00000000000000000000006D
:103EF0000020000000640240106402400000000046
:103F00000000000038000000000000000000000079
:103F1000002100000064024028640240000000000C
:103F20000600000039000000000000000000000052
:103F300000220000006402404064024000000000D3
:103F4000100000003A000000000000000000000027
:103F5000002300000064024058640240000000009A
:103F6000160000003B000000000000000000000000
:103F70000024000000640240706402400000000061
:103F8000200000003C0000000000000000000000D5
:103F90000025000000640240886402400000000028
:103FA00026000000440000000000000000000000A7
:103FB0000026000000640240A064024000000000EF
:103FC000300000004500000000000000000000007C
:103FD0000027000000640240B864024000000000B6
:103FE0003600000046000000000000000000000055
:103FF0003915000815160008810F0008550400083F
:10400000D1080008390400082104000865040008EC
:10401000750400080000000000000000007A030A98
:104020000000000000000000010203040607080968
:0400000508000000EF
:00000001FF
